:020000040800F2
:10000000580C0020690200088B2B000827170008F5
:10001000892B000855080008A531000800000000E1
:10002000000000000000000000000000332D000868
:100030005708000800000000312D0008B92D000805
:10004000830200088302000883020008830200087C
:100050008302000883020008590800088302000890
:10006000830200088302000883020008830200085C
:10007000830200088302000883020008830200084C
:10008000830200088302000883020008830200083C
:10009000830200088302000883020008830200082C
:1000A000830200088302000883020008830200081C
:1000B000830200088302000883020008830200080C
:1000C00083020008830200088302000883020008FC
:1000D00083020008613100088302000883020008DF
:1000E00083020008830200088302000883020008DC
:1000F00083020008830200088302000883020008CC
:1001000083020008830200088302000883020008BB
:1001100083020008830200088302000883020008AB
:10012000830200088302000883020008830200089B
:10013000830200088302000883020008830200088B
:10014000830200088302000883020008830200087B
:10015000830200088302000883020008830200086B
:10016000830200088302000883020008830200085B
:1001700083020008830200088302000800000000D8
:10018000830200088302000883020008830200083B
:10019000830200088302000883020008830200082B
:1001A00083020008830200088302000800F002F8BE
:1001B00000F04AF80AA090E8000C82448344AAF1B7
:1001C0000107DA4501D100F03FF8AFF2090EBAE8B5
:1001D0000F0013F0010F18BFFB1A43F0010318477B
:1001E000ACA30000CCA30000103A24BF78C878C1AB
:1001F000FAD8520724BF30C830C144BF04680C602D
:10020000704700000023002400250026103A28BF74
:1002100078C1FBD8520728BF30C148BF0B60704778
:10022000642900F08380002070471FB504F013FAA2
:1002300000F034FA04000020002103F057FD401CB8
:1002400060601FBD10B510BD00F003FA1146FFF746
:10025000ECFF03F0BFFA00F033FA03B4FFF7F2FF4C
:1002600003BC03F0A5F9000009488047094800478E
:10027000FEE7FEE7FEE7FEE7FEE7FEE7FEE7FEE756
:10028000FEE7FEE704480549054A064B70470000B3
:10029000BD2D0008AD01000858060020580C0020B4
:1002A0005808002058080020704700000FB4044987
:1002B00010B503AA029800F00BF910BC5DF814FB0E
:1002C000340000202DE9F0410E4604460020206253
:1002D0002046E168884730B3252805D0D4E90121BC
:1002E0009047206A401CF2E7E168204600278847D3
:1002F000050018D0A5F14100192802D820354FF487
:1003000000673246294620462760FFF789FF40B143
:10031000012804D0F61D26F007060836D8E7361D5A
:10032000D6E72846DAE7206ABDE8F0812DE9F041FA
:100330000646002410687529314616A510D0AFF383
:100340000080002802DA404213A507E031688A07DE
:1003500001D512A502E0490704D511A5012401E049
:10036000AFF3008000210A2206F1240709E0B0FB68
:10037000F2FCB0FBF2F302FB1C003030785418465C
:10038000491C0028F3D123462A463046BDE8F041F7
:1003900000F044B8000000002D0000002B00000019
:1003A0002000000070B5064600F034F804680546E9
:1003B00030460A22002100F09DF82C6070BD4FF0FD
:1003C000000200B5134694469646203922BFA0E8A5
:1003D0000C50A0E80C50B1F12001BFF4F7AF0907B1
:1003E00028BFA0E80C5048BF0CC05DF804EB8900A2
:1003F00028BF40F8042B08BF704748BF20F8022BE5
:1004000011F0804F18BF00F8012B704770477047FC
:100410007047704700487047F80500202DE9F04705
:100420000D4699469246044600F124080168880664
:1004300004D5E06921F01001216000E00120A8420C
:1004400001DD471B00E00027A1697A1902EB0900D2
:10045000081AA0612078C00602D42046AFF30080BD
:10046000002608E0D4E901211AF806009047206A26
:10047000401C761C20624E45F4DB2078C0060AD56D
:100480002046AFF3008006E0D4E9012130209047F8
:10049000206A401C2062381EA7F10107F4DC07E047
:1004A000D4E9012118F805009047206A401C206219
:1004B000281EA5F10105F3DC2046AFF3008020786B
:1004C000000602D50220BDE8F0870120FBE700000E
:1004D000074B70B50D467B4400F055F8044628469E
:1004E00000F0B3F810B14FF0FF3070BD204670BD82
:1004F0004F3100002DE9F04791460F4680460446F3
:10050000002614F8015B2DB100F030F80068405D62
:10051000C007F6D12B2D02D02D2D18D0641E4A46CF
:100520003946204600F042F827B13968A14201D18E
:10053000C7F800804FF0020471050BD54042002837
:1005400003DDFFF767FF0460A007BDE8F08746F40E
:100550008066E4E70028F8DAFFF75CFF04606FF0DC
:100560000040F2E700487047F805002010B500F0A1
:1005700095F8001D10BD00BF7537000001694A1CC9
:1005800002610878704700B58FB0CDE901310021D4
:10059000059105497944CDE9031011466846FFF7F6
:1005A00091FE0FB000BD0000E5FFFFFF2DE9F05FF9
:1005B000824615468B4600270AF10104B9460078A9
:1005C000302801D09DB113E014F8010B01277828E1
:1005D00003D0582801D045B10AE00DB1102D07D144
:1005E000002714F8010B102502E0082500E00A2579
:1005F0000026B0460EE005FB080005FB06F10127CA
:100600001FFA80F801EB1046B6F5803F00D3B946DB
:1006100014F8010B294600F045F80028EBDABBF18D
:10062000000F05D00FB1641E00E05446CBF8004027
:10063000B9F1000F06D0FFF7EDFE02210160C81EE0
:10064000BDE8F09F48EA0640FAE7007B00F0800032
:1006500070477546FFF786FFAE460500694653466C
:1006600020F00700854618B020B5FFF70BFEBDE867
:1006700020404FF000064FF000074FF000084FF009
:10068000000B21F00701AC46ACE8C009ACE8C0099A
:10069000ACE8C009ACE8C0098D4670470048704717
:1006A000180600203A2800D2303820F02002412AD3
:1006B00001D3A2F13700884201D34FF0FF307047D9
:1006C0000446AFF300802046FFF7C7FD4FF0013C22
:1006D00050F8042B51F8043B9A4221D1A2EB0C03B1
:1006E000934313EACC1317D150F8042B51F8043B71
:1006F0009A4215D1A2EB0C03934313EACC130BD10E
:1007000050F8042B51F8043B9A4209D1A2EB0C0398
:10071000934313EACC13DBD04FF00000704700BFC7
:10072000D01A01BAB1FA81F101F0180122FA01F0F0
:10073000CB40C1F12001DBB2C0B2C01A2CFA01F3E8
:10074000D11A914311EAC311E6D170472DE9F04F58
:100750003B4887B0016841F001010160016801F088
:1007600001010591016841F002010160016801F099
:1007700002010591016841F004010160016801F086
:1007800004010591016841F008010160016801F070
:1007900008010591016841F08001016000680124B1
:1007A00000F0800005904FF480750326CDE90054D9
:1007B000DFF89090CDE902466946484600F0F6F829
:1007C000DFF884A0A70369465046009700F0EEF8D2
:1007D000DFF878B04FF4A07869465846CDF800802D
:1007E00000F0E4F801222946484600F0D2F901223F
:1007F0003946504600F0CDF901224146584600F0F6
:10080000C8F901AA0020009582E851006946104805
:1008100000F0CCF8802000906946584600F0C6F8F9
:10082000200300906946484600F0C0F8600200903E
:100830006946584600F0BAF807B0BDE8F08F0000EE
:1008400030380240001C0240000402400008024010
:1008500000000240FEE77047012000F09BB8000056
:1008600070B5B3F5804F05D06FF0704140F822109D
:10087000002070BD50F82230084C2340D1E90045DB
:1008800044EA05148D688E892D0245EA064589697A
:100890002C430C431C4340F82240E9E70000F0CF12
:1008A000F0B50C6850F82450194A1540D1E90123DD
:1008B000D1E903671A433E4332434E6932438E699E
:1008C0003243CE6932430E6A32434E6A32438E6AF5
:1008D0003243CE6A3243CE6B32430E6B32434E6BA1
:1008E00032432A43082B01D142F0400240F8242031
:1008F0004A6BB2F5801F08D10A6832B14FF480729A
:100900000A6104490268114301600020F0BD000043
:100910008000E0FF00011000F0B500EB8202536898
:100920008E8903F04044D1E9003543EA05138D6810
:100930002D0245EA06452B430E8A0D4D05EB065662
:1009400033430E7D6F0107EB066633438E693343F5
:10095000234353600268D20207D54268098A22F411
:10096000700205EB0151114341600020F0BD000011
:100970000000F0FF10B5012807D1054C217802F0E6
:1009800019FF207810B10020207010BD0120FBE776
:1009900038000020044910B50A68024202D00860FD
:1009A000FFF7E8FF10BD0000143C01402DE9F84FAF
:1009B000DFF8A091002209F1040A0AF1040B4FF0BC
:1009C0000F080BF1040E01260B6896403340B3422A
:1009D00071D14C68022C01D0122C11D1D40800EB3B
:1009E00084073D6A5407E40E08FA04FC25EA0C0566
:1009F000D1F810C00CFA04FC4CEA050CC7F820C072
:100A000007685400032591F804C0A5400CF0030CBE
:100A1000AF430CFA04FC4CEA070CC0F800C04F6866
:100A2000012F05D0022F03D0112F01D0122F11D189
:100A30008768D1F80CC0AF430CFA04FC4CEA070CF1
:100A4000C0F808C04768B7430E79C6F30016964051
:100A50003E434660C668AE438D68A5403543C560D9
:100A60004C68E4006FD53C4C256845F48045256012
:100A7000246822F0030504F480440094374C2E19B6
:100A8000D6F808789407250F08FA05F4A743344CE4
:100A9000A04201D100242EE0324CA04201D1012419
:100AA00029E0314CA04201D1022424E02F4CA04285
:100AB00002D103241FE046E02D4CA04201D10424C2
:100AC00019E02C4CA04201D1052414E02A4CA0428C
:100AD00001D106240FE0294CA04201D107240AE0ED
:100AE000274CA04201D1082405E0264CA04201D1A8
:100AF000092400E00A24AC403C43C6F80848D9F871
:100B000000404D464E689C43F60300D51C432C60C4
:100B1000DAF8004055464E689C43B60300D51C43A6
:100B20002C60DBF800405D464E689C43F60200D521
:100B30001C432C60DEF8004075464E689C43B602AC
:100B400000D51C432C60521C102AFFF43CAFBDE8BA
:100B5000F88F0000003C0140443802400030014062
:100B6000000002400004024000080240000C024065
:100B7000001002400014024000180240001C024015
:100B800000200240002402400069084000D00120FB
:100B900070470AB1816170470904FBE701480068AA
:100BA000704700002800002002480168491C0160CD
:100BB00070470000280000200B4810B5016841F480
:100BC00000710160016841F480610160016841F4D5
:100BD00080710160052000F03BF80F2000F006F85E
:100BE00000F015F8002010BD003C024010B504468E
:100BF00000F088F94FF47A71B0FBF1F000F0D8FB07
:100C000000222146501E00F003F8002010BD70475E
:100C1000F0B40E4B1B68C3F30223C3F10704042C8A
:100C200000D904241D1D072D01D2002300E0DB1E86
:100C3000012606FA04F56D1E0D409D409E40761E6D
:100C4000164045EA0601F0BC01F0A0BF0CED00E043
:100C5000064A00F0070110684FF6FF03184040EA0B
:100C60000120034908431060704700000CED00E0CC
:100C70000000FA052DE9F8431D48016841F0805154
:100C800001600068012700F080500090380490FA5D
:100C9000A0F0DFF86080B0FA80F048F82070FFF72D
:100CA0007DFF04464FF47A75134E04E0FFF776FF9C
:100CB000001BA84213D87068C003F7D54FF400306A
:100CC00090FAA0F0B0FA80F048F82070FFF766FFC5
:100CD000044607E0FFF762FF001BA84202D9032089
:100CE000BDE8F88370688003F4D50020F8E70000C1
:100CF0004038024000000E42007000402DE9F05FD5
:100D0000DFF8F8A104460F46DAF80000DFF8F081BA
:100D100000F00F02C8B27A49814641F2883608F1E4
:100D20000808BA4261D202468AF80020DAF80000C8
:100D300000F00F00B8427DD12078800707D5D8F8A1
:100D40000020A36822F0F0021A43C8F8002020789F
:100D5000C0072DD0606801281AD002281BD00328B4
:100D600019D009688907002964DAD8F800104746C5
:100D700021F003010143C8F80010FFF70FFF0546FB
:100D8000606801280FD0022818D003281CD027E063
:100D900009688903E7E709688901E4E7FFF7FEFED0
:100DA000401BB04258D83868C0F381000128F5D103
:100DB00088E0FFF7F3FE401BB0424DD83868C0F31F
:100DC00081000228F5D17DE03868FFF7E7FE401B7F
:100DD000B042F9D940E0FFF7E1FE401BB0423BD8FA
:100DE000386810F00C0FF6D16CE02078800707D53A
:100DF000D8F80020A36822F0F0021A43C8F80020B7
:100E00002078C0074CD06068012828D0022829D05B
:100E1000032827D009688907002949DAD8F8002073
:100E200022F003020243C8F80020FFF7B7FE054690
:100E3000606800E03CE001281DD0022829D003288A
:100E400038D0B3464646306810F00C0F28D0FFF774
:100E5000A5FE411B5945F6D90320BDE8F09F09685E
:100E60008903D9E709688901D6E7FFF797FE411B97
:100E7000594502D9F0E7B34646463068C0F38100D1
:100E80000128F2D10CE0FFF789FE411B594502D938
:100E9000E2E7B34646463068C0F381000228F2D14B
:100EA0008AF80090DAF8000000F00F00B84209D08C
:100EB0000120D2E744462068FFF770FE401BB04295
:100EC000F9D9C9E72078400707D5D8F80010E268BB
:100ED00021F4E0511143C8F800102078000708D52C
:100EE000D8F80010226921F4604141EAC201C8F833
:100EF00000100F20FFF77AFE0020AEE7003C024012
:100F00000038024010B500F017F808490968F022CF
:100F100092FAA2F201F0F001B2FA82F2D140044A50
:100F2000515CC8400349086010BD00000838024009
:100F30006A4600081400002030B51948006810F017
:100F40000C01184812D0184C04290ED008290DD1D4
:100F5000134A121F1168136801F03F015D0247F642
:100F6000C07304D5B4FBF1F003E0204630BDB0FB04
:100F7000F1F01168194093FAA3F3B3FA83F3D9405F
:100F8000484311684FF4403292FAA2F201F4403122
:100F9000B2FA82F2D140491C4900B0FBF1F030BDF9
:100FA000083802400024F40040787D012DE9F84F14
:100FB00004460078DFF8FCA2BF4DC0074FF00006E2
:100FC00048D0DAF800105046C1F38101012908D059
:100FD0000068C0F3810002280AD1281D0068400281
:100FE00006D52868800335D56068002873D031E0C5
:100FF000DFF8C49209F1020989F80060FFF7CEFD1D
:10100000074641F2883804E0FFF7C8FDC11B41459F
:101010007AD828688003F7D4207989F800006068BE
:1010200060B1FFF7BBFD074604E0FFF7B7FDC11B4A
:101030004145EDD828688003F7D50BE0FFF7AEFDFA
:10104000074604E0FFF7AAFDC11B4145E0D8286828
:101050008003F7D42078DFF86492800744D5DAF86B
:101060000010504611F00C0F4FF0F80809D000683E
:10107000C0F3810002280BD18E48001F0068400297
:1010800006D42868800714D5E068012823D110E031
:10109000E068D0B10120C9F80000FFF77FFD0746E6
:1010A00004E0FFF77BFDC01B6428B1D828688007E7
:1010B000F7D5286898FAA8F22169B2FA82F220F0EE
:1010C000F8009140084328600EE0C9F80060FFF77F
:1010D00065FD074605E0EAE0FFF760FDC01B6428F8
:1010E00012D828688007F7D42078000725D5DFF8C4
:1010F000C4817348616908F16C0881B10121016004
:10110000FFF74CFD074605E07EE0FFF747FDC01BFB
:10111000642879D8D8F800008007F6D50DE006607D
:10112000FFF73CFD074604E0FFF738FDC01B6428CD
:101130006AD8D8F800008007F6D42078400753D545
:101140005C483830016841F0805101600068DFF888
:10115000748100F080500090D8F8001041F4807144
:10116000C8F80010FFF71AFD074604E0FFF716FD68
:10117000C01B642848D8D8F80000C005F6D5DFF8B1
:1011800034B10BF1680B8BF80060FFF707FD0746E1
:1011900041F2883804E0FFF701FDC11B41457ED8CC
:1011A000DBF800008007F6D4207A8BF80000A068F6
:1011B00068B1FFF7F3FC074604E0FFF7EFFCC11B43
:1011C00041456CD8DBF800008007F6D50CE0FFF74E
:1011D000E5FC074604E0FFF7E1FCC11B41455ED892
:1011E000DBF800008007F6D4A069E8B3DAF8001055
:1011F000C1F3810102295AD0022806D0C9F86060E3
:10120000FFF7CCFC04464DE049E04F46C9F860606A
:10121000FFF7C4FC064604E0FFF7C0FC801B64280F
:101220003DD828688001F7D4D4E90701084347F680
:10123000C07191FAA1F1626AB1FA81F18A40A16AA2
:101240004FF0FF3303EB51014FF4403393FAA3F314
:10125000B3FA83F399400A4310434FF0706292FA55
:10126000A2F2B2FA82F200E01FE0E16A9140084384
:101270001049091F086001203866FFF78FFC0446FB
:1012800004E0FFF78BFC001B642808D82868800165
:10129000F7D50AE0FFF782FC001B642802D903207F
:1012A000BDE8F88F28688001F4D40020F8E7012019
:1012B000F6E70000083802400038024000004742CC
:1012C000800E47420070004070B515460E4604007F
:1012D00003D094F8490010B107E0012070BD002050
:1012E00084F84800204600F01BF804F1080120684B
:1012F000FFF7D6FA3146A2682068FFF70DFBD4E964
:1013000001022946236BFFF7ABFAA168206850F869
:10131000212042F0010240F82120002070BD000091
:101320001A4800B5016887B041F00101016000680A
:1013300000F00100059015480838016841F00801E7
:101340000160016801F008010591016841F0100198
:1013500001600068694600F0100005904EF2B3701D
:1013600000900220019001200290032003900C20A5
:1013700004900748FFF71AFB4FF68070009069460B
:101380000448FFF713FB07B000BD000038380240E7
:10139000000C0240001002404FF0E02104280869D0
:1013A00003D020F004000861704740F00400FAE721
:1013B00010B5401EB0F1807F01D3012010BD4FF069
:1013C000E02460610F21601701F0E0FB0020A061C4
:1013D00007202061002010BD70B5044690F8380049
:1013E0000D4601280DD0012684F83860022084F8CB
:1013F000390042B1042A18D0082A2AD00C2A4DD12B
:1014000039E0022070BD206801F06EFD206881691E
:1014100041F0080181612068816921F00401816146
:10142000206881692A69114311E0206801F088FD74
:101430002068816941F4006181612068816921F43B
:1014400080618161206881692A6941EA02218161A4
:1014500024E0206801F0A6FD2068C16941F0080180
:10146000C1612068C16921F00401C1612068C169BE
:101470002A69114311E0206801F0C4FD2068C169A8
:1014800041F40061C1612068C16921F48061C161DA
:101490002068C1692A6941EA0221C16184F8396082
:1014A000002084F8380070BD10B5040003D094F813
:1014B000390010B107E0012010BD002084F8380089
:1014C000204600F00DF8022084F83900211D206824
:1014D00001F09EFC012084F83900002010BD0000BE
:1014E000114800B5016887B041F002010160006851
:1014F00000F0020005900C481038016841F002012C
:1015000001600068032100F0020005900220CDE98F
:10151000001001220292CDE9031069460348FFF74B
:1015200045FA07B000BD0000403802400004024008
:1015300010B504460068012201F0CAFC0848216881
:10154000814202D00748814203D1486C40F40040F8
:1015500048642068016841F001010160002010BD6D
:101560000000014000040140704790F839007047C6
:1015700038B5016804460868CA68C0F3000002F480
:10158000807238B132B1086848680090E06B40F072
:101590000100E06308684A69C0F3400002F00102FC
:1015A00038B132B1086848680090E06B40F0040040
:1015B000E06308684A69C0F3800002F0010238B1B4
:1015C00032B1086848680090E06B40F00200E063C8
:1015D00008684A69C0F3C00002F0010238B132B1B4
:1015E000086848680090E06B40F00800E063086815
:1015F000C968C0F3401001F0200118B111B12046B4
:1016000001F028FD20680168C068C1F3C01100F036
:10161000800019B110B1204601F06FFD2168086803
:10162000CA68C0F3801002F04002012568B162B1BF
:10163000CA68204622F04002CA6094F83910322964
:101640000CD080F8395000F06DF8E06B002804D021
:1016500084F839502046FFF787FF38BD222180F8F3
:101660003910F0E790F83930012B01D0122B2BD133
:1016700031B32AB390F83830012B25D0012380F8FC
:10168000383081628285C2850022C26390F83910A9
:10169000122917D0222180F839100168CB6843F451
:1016A0008073CB6001684B6943F001034B6180F8A4
:1016B00038200068C16841F02001C16000207047F7
:1016C000012070473221E6E70220704730B50068FC
:1016D000114988420CD1114A5088010408D411469E
:1016E000440409784FF0000306D50A2901D053803D
:1016F00030BD40F400400DE00D2909D0C0F30D04C9
:10170000074D401C80B229555080C728EFD830BD06
:1017100040F48040508030BD001001403000002077
:10172000540000207047FEE770B5064609480024C3
:101730000188458820464D43214601F0FDF801F01F
:1017400011FAB1B2044801E00180641CAC42FBD341
:1017500070BD0000E80500200000086070B40F496B
:101760004FF430524FF4285388714FF42C544FF4F7
:10177000F0754FF4487610B1012806D00AE00A81CE
:101780004B818C810D804E8004E00A814B818C81DD
:101790000E804D8070BC002001F060B8E80500208C
:1017A00070B5154C06460D46A088A0F5AA41103923
:1017B0001BD1608901F0CAF9300A01F0BBF96089D8
:1017C000401C80B201F0C2F9F0B201F0B3F9A08977
:1017D00001F0BCF9280A01F0ADF9A089401C80B2E3
:1017E00001F0B4F9E8B201F0A5F9044920890880B4
:1017F000881C028070BD0000E8050020FEFF076025
:101800002DE9F04FFF4895B00024016841F0020136
:1018100001600068012600F0020000902020CDE960
:1018200010060320CDE9126010A9F748FFF7BEF8B3
:10183000F6484FF02045F6490560C0E90114102133
:10184000C460C0E9044184610902C461C0E909417E
:101850008900C0E90B4189014463C0E90E4146217A
:101860000B910F20CDE90904CDE9020404900F94F7
:1018700002AA09A90894E548FFF726FD322001F0E5
:10188000ABFE4FF45A4001F061F900F0DDFFDF4C90
:101890005034A0804FF45B4001F058F900F0D4FFC1
:1018A0004FF6FF7808EA0020A0804FF45C4001F07A
:1018B0004DF900F0C9FFA18845F210570843A080F8
:1018C000B0F5004F7ED0B8427DD14FF47043552122
:1018D000184601F051F94FF20109AA21484601F0DA
:1018E0004BF94FF2020A5221504601F045F94FF2EE
:1018F000030B0821584601F03FF901214FF2040083
:1019000001F03AF90D214FF4304001F035F90D2185
:101910004BF2010001F030F90D214BF2020001F011
:101920002BF934214FF4364001F026F934214BF2E3
:10193000016001F021F934214BF2026001F01CF941
:101940000D214FF4314001F017F90D214BF2011038
:1019500001F012F90D214BF2021001F00DF93421C2
:101960004FF4374001F008F934214BF2017001F0D7
:1019700003F934214BF2027001F0FEF800214FF41C
:10198000324001F0F9F800214BF2012001F0F4F8A7
:1019900000214BF2022001F0EFF824214FF43840EF
:1019A00001F0EAF824214BF6010001F0E5F82421CA
:1019B0004BF6020001F0E0F801214FF43F4001F046
:1019C000DBF801E0FDE3FDE30F214FF4334001F0CC
:1019D000D3F80F214BF2013001F0CEF80F214BF27A
:1019E000023001F0C9F834214FF4394001F0C4F855
:1019F00034214BF6011001F0BFF834214BF60210F0
:101A000001F0BAF808214FF4354001F0B5F808218B
:101A10004BF2015001F0B0F808214BF2025001F0F6
:101A2000ABF803214FF4424001F0A6F824214FF413
:101A30003A4001F0A1F824214BF6012001F09CF876
:101A400024214BF6022001F097F800214FF43C408E
:101A500001F092F878214BF6014001F08DF8002159
:101A60004BF6024001F088F800214FF43D4001F0B0
:101A700083F878214BF6015001F07EF800214BF6F7
:101A8000025001F079F800214FF43E4001F074F863
:101A900064214BF6016001F06FF800214FF45140D2
:101AA00001F06AF833214DF2011001F065F80021D0
:101AB0004DF2021001F060F834214DF2031001F0F4
:101AC0005BF800214DF2041001F056F83A214DF276
:101AD000051001F051F800214DF2061001F04CF80C
:101AE0004A214DF2071001F047F800214DF208108D
:101AF00001F042F85C214DF2091001F03DF800219F
:101B00004DF20A1001F038F881214DF20B1001F06E
:101B100033F800214DF20C1001F02EF8A6214DF201
:101B20000D1001F029F800214DF20E1001F024F8FB
:101B3000E5214DF20F1001F01FF801214DF21010B8
:101B400001F01AF813214DF2111001F015F80121DE
:101B50004DF2121001F010F854214DF2131001F063
:101B60000BF801214DF2141001F006F882214DF21C
:101B7000151001F001F801214DF2161000F0FCFFE4
:101B8000CA214DF2171000F0F7FF02214DF2181094
:101B900000F0F2FF00214DF2191000F0EDFF0221DC
:101BA0004DF21A1000F0E8FF01214DF21B1000F079
:101BB000E3FF02214DF21C1000F0DEFF34214DF254
:101BC0001D1000F0D9FF02214DF21E1000F0D4FFCD
:101BD00067214DF21F1000F0CFFF02214DF22010BF
:101BE00000F0CAFF84214DF2211000F0C5FF022150
:101BF0004DF2221000F0C0FFA4214DF2231000F09E
:101C0000BBFF07E030380240000402409805002086
:101C1000040100A002214DF2241000F0ADFFB72115
:101C20004DF2251000F0A8FF02214DF2261000F021
:101C3000A3FFCF214DF2271000F09EFF02214DF2AD
:101C4000281000F099FFDE214DF2291000F094FFDA
:101C500002214DF22A1000F08FFFF2214DF22B10DD
:101C600000F08AFF02214DF22C1000F085FFFE21CA
:101C70004DF22D1000F080FF03214DF22E1000F0E8
:101C80007BFF10214DF22F1000F076FF03214DF263
:101C9000301000F071FF33214DF2311000F06CFF75
:101CA00003214DF2321000F067FF6D214DF2331029
:101CB00000F062FF00214FF4524000F05DFF33213D
:101CC0004DF2012000F058FF00214DF2022000F0FB
:101CD00053FF34214DF2032000F04EFF00214DF25E
:101CE000042000F049FF3A214DF2052000F044FFA6
:101CF00000214DF2062000F03FFF4A214DF207205F
:101D000000F03AFF00214DF2082000F035FF5C2181
:101D10004DF2092000F030FF00214DF20A2000F0C2
:101D20002BFF81214DF20B2000F026FF00214DF208
:101D30000C2000F021FFA6214DF20D2000F01CFF29
:101D400000214DF20E2000F017FFE5214DF20F208B
:101D500000F012FF01214DF2102000F00DFF1321C1
:101D60004DF2112000F008FF01214DF2122000F089
:101D700003FF54214DF2132000F0FEFE01214DF22D
:101D8000142000F0F9FE82214DF2152000F0F4FE3F
:101D900001214DF2162000F0EFFECA214DF217206E
:101DA00000F0EAFE02214DF2182000F0E5FE0021CD
:101DB0004DF2192000F0E0FE02214DF21A2000F051
:101DC000DBFE01214DF21B2000F0D6FE02214DF278
:101DD0001C2000F0D1FE34214DF21D2000F0CCFE7D
:101DE00002214DF21E2000F0C7FE67214DF21F2098
:101DF00000F0C2FE02214DF2202000F0BDFE842141
:101E00004DF2212000F0B8FE02214DF2222000F018
:101E1000B3FEA4214DF2232000F0AEFE02214DF2CC
:101E2000242000F0A9FEB7214DF2252000F0A4FEE9
:101E300002214DF2262000F09FFECF214DF22720F7
:101E400000F09AFE02214DF2282000F095FEDE21DE
:101E50004DF2292000F090FE02214DF22A2000F0E0
:101E60008BFEF2214DF22B2000F086FE02214DF276
:101E70002C2000F081FEFE214DF22D2000F07CFE92
:101E800003214DF22E2000F077FE10214DF22F207D
:101E900000F072FE03214DF2302000F06DFE332180
:101EA0004DF2312000F068FE03214DF2322000F0A7
:101EB00063FE6D214DF2332000F05EFE00214FF4F1
:101EC000534000F059FE33214DF2013000F054FE32
:101ED00000214DF2023000F04FFE34214DF203306C
:101EE00000F04AFE00214DF2043000F045FE3A2198
:101EF0004DF2053000F040FE00214DF2063000F0BA
:101F00003BFE4A214DF2073000F036FE00214DF233
:101F1000083000F031FE5C214DF2093000F02CFE5B
:101F200000214DF20A3000F027FE81214DF20B30E6
:101F300000F022FE00214DF20C3000F01DFEA62123
:101F40004DF20D3000F018FE00214DF20E3000F081
:101F500013FEE5214DF20F3000F00EFE01214DF28F
:101F6000103000F009FE13214DF2113000F004FE94
:101F700001214DF2123000F0FFFD54214DF21330DB
:101F800000F0FAFD01214DF2143000F0F5FD822140
:101F90004DF2153000F0F0FD01214DF2163000F049
:101FA000EBFDCA214DF2173000F0E6FD02214DF2A3
:101FB000183000F0E1FD00214DF2193000F0DCFD99
:101FC00002214DF21A3000F0D7FD01214DF21B30F5
:101FD00000F0D2FD02214DF21C3000F0CDFD342185
:101FE0004DF21D3000F0C8FD02214DF21E3000F010
:101FF000C3FD67214DF21F3000F0BEFD02214DF2FE
:10200000203000F0B9FD84214DF2213000F0B4FD04
:1020100002214DF2223000F0AFFDA4214DF2233019
:1020200000F0AAFD02214DF2243000F0A5FDB721F9
:102030004DF2253000F0A0FD02214DF2263000F0D7
:102040009BFDCF214DF2273000F096FD02214DF28D
:10205000283000F091FDDE214DF2293000F08CFD9A
:1020600002214DF22A3000F087FDF2214DF22B3093
:1020700000F082FD02214DF22C3000F07DFDFE21AA
:102080004DF22D3000F078FD03214DF22E3000F09E
:1020900073FD10214DF22F3000F06EFD03214DF243
:1020A000303000F069FD33214DF2313000F064FD35
:1020B00003214DF2323000F05FFD6D214DF23330DF
:1020C00000F05AFD00214FF4544000F055FD33213B
:1020D0004DF2014000F050FD00214DF2024000F0B1
:1020E0004BFD34214DF2034000F046FD00214DF23E
:1020F000044000F041FD3A214DF2054000F03CFD66
:1021000000214DF2064000F037FD4A214DF2074014
:1021100000F032FD00214DF2084000F02DFD5C2161
:102120004DF2094000F028FD00214DF20A4000F078
:1021300023FD81214DF20B4000F01EFD00214DF2E8
:102140000C4000F019FDA6214DF20D4000F014FDE9
:1021500000214DF20E4000F00FFDE5214DF20F4041
:1021600000F00AFD01214DF2104000F005FD1321A1
:102170004DF2114000F000FD01214DF2124000F03F
:10218000FBFC54214DF2134000F0F6FC01214DF20E
:10219000144000F0F1FC82214DF2154000F0ECFCFF
:1021A00001214DF2164000F0E7FCCA214DF2174024
:1021B00000F0E2FC02214DF2184000F0DDFC0021AD
:1021C00001E034E30CE34DF2194000F0D5FC0221AC
:1021D0004DF21A4000F0D0FC01214DF21B4000F0FE
:1021E000CBFC02214DF21C4000F0C6FC34214DF224
:1021F0001D4000F0C1FC02214DF21E4000F0BCFC6D
:1022000067214DF21F4000F0B7FC02214DF2204043
:1022100000F0B2FC84214DF2214000F0ADFC02211F
:102220004DF2224000F0A8FCA4214DF2234000F022
:10223000A3FC02214DF2244000F09EFCB7214DF298
:10224000254000F099FC02214DF2264000F094FC5C
:10225000CF214DF2274000F08FFC02214DF22840A3
:1022600000F08AFCDE214DF2294000F085FC0221BD
:102270004DF22A4000F080FCF2214DF22B4000F09C
:102280007BFC02214DF22C4000F076FCFE214DF249
:102290002D4000F071FC03214DF22E4000F06CFC4B
:1022A00010214DF22F4000F067FC03214DF2304029
:1022B00000F062FC33214DF2314000F05DFC03215F
:1022C0004DF2324000F058FC6D214DF2334000F0E9
:1022D00053FC00214FF4554000F04EFC33214DF2E9
:1022E000015000F049FC00214DF2025000F044FC86
:1022F00034214DF2035000F03FFC00214DF2045018
:1023000000F03AFC3A214DF2055000F035FC002176
:102310004DF2065000F030FC4A214DF2075000F01B
:102320002BFC00214DF2085000F026FC5C214DF200
:10233000095000F021FC00214DF20A5000F01CFC75
:1023400081214DF20B5000F017FC00214DF20C5092
:1023500000F012FCA6214DF20D5000F00DFC002102
:102360004DF20E5000F008FCE5214DF20F5000F048
:1023700003FC01214DF2105000F0FEFB13214DF241
:10238000115000F0F9FB01214DF2125000F0F4FB66
:1023900054214DF2135000F0EFFB01214DF2145087
:1023A00000F0EAFB82214DF2155000F0E5FB01211F
:1023B0004DF2165000F0E0FBCA214DF2175000F02C
:1023C000DBFB02214DF2185000F0D6FB00214DF24C
:1023D000195000F0D1FB02214DF21A5000F0CCFB55
:1023E00001214DF21B5000F0C7FB02214DF21C50A1
:1023F00000F0C2FB34214DF21D5000F0BDFB022164
:102400004DF21E5000F0B8FB67214DF21F5000F056
:10241000B3FB02214DF2205000F0AEFB84214DF2BF
:10242000215000F0A9FB02214DF2225000F0A4FB44
:10243000A4214DF2235000F09FFB02214DF22450C5
:1024400000F09AFBB7214DF2255000F095FB0221D8
:102450004DF2265000F090FBCF214DF2275000F0B6
:102460008BFB02214DF2285000F086FBDE214DF25D
:10247000295000F081FB02214DF22A5000F07CFB34
:10248000F2214DF22B5000F077FB02214DF22C503F
:1024900000F072FBFE214DF22D5000F06DFB032188
:1024A0004DF22E5000F068FB10214DF22F5000F03D
:1024B00063FB03214DF2305000F05EFB33214DF2FF
:1024C000315000F059FB03214DF2325000F054FB23
:1024D0006D214DF2335000F04FFB00214FF4564078
:1024E00000F04AFB33214DF2016000F045FB002172
:1024F0004DF2026000F040FB34214DF2036000F029
:102500003BFB00214DF2046000F036FB3A214DF216
:10251000056000F031FB00214DF2066000F02CFB5D
:102520004A214DF2076000F027FB00214DF20860C0
:1025300000F022FB5C214DF2096000F01DFB002140
:102540004DF20A6000F018FB81214DF20B6000F0A3
:1025500013FB00214DF20C6000F00EFBA6214DF2A2
:102560000D6000F009FB00214DF20E6000F004FB4D
:10257000E5214DF20F6000F0FFFA01214DF21060ED
:1025800000F0FAFA13214DF2116000F0F5FA012182
:102590004DF2126000F0F0FA54214DF2136000F099
:1025A000EBFA01214DF2146000F0E6FA82214DF2BF
:1025B000156000F0E1FA01214DF2166000F0DCFA3E
:1025C000CA214DF2176000F0D7FA02214DF21860CF
:1025D00000F0D2FA00214DF2196000F0CDFA02218C
:1025E0004DF21A6000F0C8FA01214DF21B6000F0B4
:1025F000C3FA02214DF21C6000F0BEFA34214DF204
:102600001D6000F0B9FA02214DF21E6000F0B4FA2C
:1026100067214DF21F6000F0AFFA02214DF22060F9
:1026200000F0AAFA84214DF2216000F0A5FA0221FF
:102630004DF2226000F0A0FAA4214DF2236000F0D8
:102640009BFA02214DF2246000F096FAB7214DF278
:10265000256000F091FA02214DF2266000F08CFA1C
:10266000CF214DF2276000F087FA02214DF2286059
:1026700000F082FADE214DF2296000F07DFA02219D
:102680004DF22A6000F078FAF2214DF22B6000F052
:1026900073FA02214DF22C6000F06EFAFE214DF229
:1026A0002D6000F069FA03214DF22E6000F064FA0B
:1026B00010214DF22F6000F05FFA03214DF23060DF
:1026C00000F05AFA33214DF2316000F055FA03213F
:1026D0004DF2326000F050FA6D214DF2336000F09F
:1026E0004BFA5521184600F047FAAA21484600F057
:1026F00043FA5221504600F03FFA0821584600F0B4
:102700003BFA00214FF2040000F036FACC214FF4DE
:10271000314000F031FA00214BF2011000F02CFAA8
:1027200005214FF4364000F027FA70214FF437406E
:1027300000F022FA70214BF2017000F01DFA012125
:102740004FF4384000F018FA03214BF6010000F076
:1027500013FA03214BF6020000F00EFA03214BF6A8
:10276000030000F009FA02214FF43C4000F004FAA3
:1027700000214BF6014000F0FFF900214BF602402A
:1027800000F0FAF9D0214FF4494000F0F5F90221A8
:102790004CF6011000F0F0F950214CF6021000F058
:1027A000EBF950214CF6031000F0E6F950214CF6FD
:1027B000041000F0E1F900214FF4545000F0DCF96E
:1027C00055214FF4685000F0D7F94FF4885000F0CD
:1027D000BDF9782000F00EFF4FF4245000F0B6F958
:1027E000A088B84217D1D5F8040120F00F00C5F831
:1027F0000401D5F8040120F47060C5F80401D5F88F
:10280000040140F00400C5F80401D5F8040140F4C7
:102810008060C5F804010020FEF7A0FF0548C0F85D
:1028200094624046FEF780FF15B0BDE8F08FA780A8
:10283000FFF74BB8008040420346012000E05843B8
:10284000491EC9B2FBD27047034808B50088ADF8ED
:102850000000BDF8000008BD0000086010B5354C50
:102860000021A388A3F5AA42103A62D1082812D207
:10287000DFE800F0110406080A0C0E1080210AE0BF
:10288000402108E0C02106E0202104E0602102E0B0
:10289000A02100E0E0214FF4585041F0080100F081
:1028A0006BF9608900F052F9002000F043F960896B
:1028B000401C80B200F04AF9002000F03BF960892A
:1028C000801C80B200F042F92088401EC0F30F2027
:1028D00000F030F96089C01C80B200F037F9207830
:1028E000401EC0B200F026F9A08900F02FF90020A8
:1028F00000F020F9A089401C80B200F027F90020E8
:1029000000F018F9A089801C80B200F01FF96088DF
:10291000401EC0F30F2000F00DF9A089C01C80B24A
:1029200000F014F9A078BDE81040401EC0B200F0DD
:1029300001B910BDE805002030B5134A05460C4624
:102940009088A0F5AA4110391DD1508900F0FEF8F9
:10295000280A00F0EFF85089401C80B200F0F6F829
:10296000E8B200F0E7F8908900F0F0F8200A00F0F3
:10297000E1F89089401C80B200F0E8F8E0B2BDE8D0
:10298000304000F0D7B830BDE80500202DE9F84F01
:1029900082461F460E468B46580700D0012000EBAA
:1029A000D700790810FB01F0203AC0B202F0FF090D
:1029B0000025009047E00C2F10D0102F12D0182FB8
:1029C00014D0202F42D1224901EBC9104FF000084A
:1029D000445D200610D51F48026811E009EB49004C
:1029E0001D4906E01D4901EB0910EFE71C4909EB01
:1029F000C90001EB8000E9E70A9828B91548426848
:102A000031465046FEF7CCFE6006040E1548761C93
:102A1000B6B24088B04219D9A6EB0B00B84209D132
:102A20000AF101001FFA80FA0E485E4601885145FE
:102A30000CD906E008F1010000F0FF08B8F1080F1A
:102A4000C7D36D1CEDB200988542B4D3BDE8F88FB2
:102A50000C7600084C0000204C5E0008C0620008A4
:102A6000B0680008E80500202DE9FF4F81B000277D
:102A7000DDF838B01D46924680463C46B9464FEADE
:102A80005B0627E0281B401EC1B20A20FFF7D4FED8
:102A9000BAFBF0F00A21B0FBF1F201FB120027B9FA
:102AA000691E8C4201DA48B101273030C2B206FB00
:102AB000048080B25B46CDF8009006E006FB0480FF
:102AC00080B25B462022CDF800900299FFF75EFFAE
:102AD000641CE4B2AC42D5D305B0BDE8F08F2DE95B
:102AE000F84F044600F0FF0810190D46DDE90A769C
:102AF0001FFA80FA58191FFA80F94FF0000B11E005
:102B0000544502D3E819444685B24D450FD23B46A1
:102B100029462046CDF800B0FFF738FF04EB5700F8
:102B200084B2761C3278A2F120005E28E8D9BDE894
:102B3000F88F000001B5BDF80000ADF80000BDF849
:102B400000000149088008BD0000086001B5BDF81B
:102B50000000ADF80000BDF800000149088008BD84
:102B6000FEFF0760024803490089088070470000A3
:102B7000E8050020FEFF0760024A1080901C0180DB
:102B800070470000FEFF0760FEE770470907090E67
:102B9000002806DA00F00F0000F1E02080F8141D94
:102BA000704700F1E02080F80014704710B57F28CE
:102BB00016D83F2914D80723A3EBD10301F007014E
:102BC000C1F107040121A140064CDBB204EBC000B7
:102BD000002AC25CC9B201D00A4300E08A43C25451
:102BE00010BD00009801002070B5114E002505F1C0
:102BF000B000C0B2002100F077F80021084600F0D4
:102C000073F80021102000F06FF8002406EBC400D8
:102C10000121405D00F068F8641CE4B2802CF5D31B
:102C2000022000F0E7FC6D1CEDB2082DDFD370BD73
:102C3000980100202DE9F84F83461E460F468A462C
:102C4000580700D0012000EBD600710810FB01F0FE
:102C5000203AC0B202F0FF090025009039E00C2EA6
:102C60000FD0102E11D0182E36D11C4909EBC900F7
:102C700001EB80004FF00008445D200609D50A9A58
:102C80000AE009EB49001649F2E7164901EB091081
:102C9000F0E70A9890B1002239465846FFF786FFC0
:102CA00060067F1C040EFFB2A7EB0A00B04207D1FA
:102CB0000BF10100574600F0FF0B08E00122EBE7A3
:102CC00008F1010000F0FF08B8F1080FD5D36D1C22
:102CD000EDB200988542C2D3BDE8F88FF0500008ED
:102CE0008C460008004B000870B50F4AC2F89812D5
:102CF0000E4D0024C5F8A84221460123C2F8B04277
:102D0000060602D5C2F8A83201E0C2F8A842C2F80D
:102D1000B0324006491C000EC9B20829EED3C5F8EE
:102D2000A832C2F8983270BD008043420080404211
:102D30007047704770B51E4C92B00025266846F06B
:102D400080562660246804F080541194194C26683B
:102D500046F44046266024680DF1240C04F44044F7
:102D60001194012400940194022406948CE80D002F
:102D70006605CDE907616846FEF718F900B1FEE780
:102D8000FDF778FF00B1FEE70CA90F2081E83100C4
:102D90004FF4A0500F904FF48050109005210CA8D4
:102DA000FDF7ACFF002800D0FEE712B070BD0000B8
:102DB0004038024000700040FDF7F6BE1048016840
:102DC00041F4700101600F48016841F001010160A8
:102DD0000C4A00210832116002680B4B1A40026055
:102DE000031D0A4A1A60026822F480220260054824
:102DF0000C300160024958068039086070470000B5
:102E000088ED00E000380240FFFFF6FE103000249D
:102E1000F0B50268234D244E244FDFF894C0254BB3
:102E20004FF0804EA84209D0704507D0B04205D07F
:102E3000B84203D0604501D0984203D122F070041B
:102E40004A682243A8421BD0704519D0B04217D01F
:102E5000B84215D0604513D0984211D0164CA0420C
:102E60000ED0164CA0420BD0154CA04208D0154CE9
:102E7000A04205D0144CA04202D0144CA04203D171
:102E800022F44074CA68224302608A68C2620A68F7
:102E90008262A84201D0984201D1096901630121EF
:102EA0004161F0BD00000140000400400008004006
:102EB000000C00400004014000400140004401407B
:102EC0000048014000180040001C00400020004065
:102ED00010B50123046A8B409C430462036A8A4054
:102EE0001343036210BD000030B5026A22F00102F4
:102EF0000262056A426883690C6823F073031C430D
:102F00008B6825F002052B430B4DA84202D00B4DD8
:102F1000A8420BD123F00805CB6822F440722B4362
:102F20004D6923F0040315438A692A434260846192
:102F300049684163036230BD000001400004014064
:102F400030B5026A22F010020262036A42688469A4
:102F50000D6824F4E64444EA05248D6823F0200338
:102F600043EA05130D4DA84202D00D4DA8420ED1E3
:102F7000CD6823F0800343EA05134D6922F44062D3
:102F800042EA85028D6923F0400342EA85024260ED
:102F9000846149688163036230BD00000000014024
:102FA0000004014030B5026A22F480720262036AB2
:102FB0004268C46923F4007324F073050C682C4341
:102FC0008D6843EA05230D4DA84202D00C4DA8425E
:102FD0000ED1CD6823F4006343EA05234D6922F442
:102FE000405242EA05128D6923F4806342EA0512D9
:102FF0004260C4614968C163036230BD00000140A2
:103000000004014030B5026A22F480520262036A71
:103010004268C4690D6824F4E64444EA05248D68D6
:1030200023F4005343EA0533084DA84202D0084D6B
:10303000A84204D14D6922F4804242EA85124260DE
:10304000C46149680164036230BD000000000140B2
:103050000004014010B590F83910222903D032291C
:1030600001D0022010BD8168B1F5805F11D00169E7
:10307000002901681FD0496801F07F03816A4A1C5A
:1030800082620B70C18D491E0904090CC18518D0DC
:103090002FE00269816A002A0268526805D0D2B224
:1030A0000A80816A491C8162ECE7C2F308020A8047
:1030B000816A891CF7E74A68816A4B1C83620A703F
:1030C000E0E70168CA6822F02002CA6090F839106F
:1030D000322910D00168CA6822F48072CA6001687F
:1030E0004A6922F001024A61012180F83910FEF795
:1030F000EDFA002010BD1221F7E790F839101229DF
:1031000003D0322901D0022070478168B1F5805F79
:10311000016A0BD04A1C0262026809785160C18CB6
:10312000491E0904090CC1840ED017E00988026801
:10313000C1F30801516001690029016A02D0491CEC
:103140000162ECE7891CFBE70168CA6822F0800293
:10315000CA600068C16841F04001C160002070474A
:1031600070B500240C4D0D48FEF702FA02E0641C15
:10317000AC4204D80948FEF7F8F90128F7D1002439
:1031800002E0641CAC4206D8012205490348FEF760
:1031900069FA0028F5D170BDFFFF01001C01002075
:1031A00030000020FEE710B580B200F047FABCEE18
:1031B000C00ABDE8104010EE100A00F05DBD00002E
:1031C0002DE9FF5F2DED020B002699462DED028BB8
:1031D000B0EE408A04989246046805980568581B2A
:1031E00000EE100A101BF8EEC00A00EE100AB8EE4E
:1031F000C00A20EE080AF4EEC00AF1EE10FA24D25A
:1032000000EE109A34A0B8EEC00AC0EE080A00EE34
:10321000104AB8EEC00A30EEC00AFDEEC08A00EED9
:10322000109AB8EEC00AC0EE080ABDEEE00A10EE31
:10323000101AFDF73BF818EE907AC84649463A4610
:1032400028A0FDF733F8012011E000EE10AA574640
:103250005246B8EEC00A20EE080ABDEEC00A10EED3
:10326000100A804601461FA0FDF720F80020834683
:10327000BDEEC88A20E018EE100ABBF1000F96FBE5
:10328000F0F100FB116003D06D1C20B9641C02E05A
:10329000641C00B96D1C454505DA284600F034F879
:1032A000052000F099F9BC4205DA2046FFF77BFFC4
:1032B000052000F091F9761C4545DCDBBC42DADBE9
:1032C0000499C1F800A00599C1F80090BDEC028BEB
:1032D00006B0BDE8F09F00002074656D70203D20B1
:1032E00020256400526573756C745F595F6E6F774B
:1032F000203D2025642C526573756C745F585F6E99
:103300006F77203D2025640010B580B200F0F4F9FD
:10331000BCEEC00ABDE8104010EE100A00F0B2BCCE
:103320004100080218BF04200A0E18BF40F0010037
:103330004FF07F4232EA010108BF40F0020001284D
:1033400008BF05207047000010EE100A10B510EEFF
:10335000901A4FF0684202EB40032DED028BB3F15F
:10336000654F3CBF02EB4102B2F1654F7CD200BF1A
:10337000C0F3C753C1F3C7529A1A1B2A09DD10F0D4
:10338000004F14BF9FED6E0A9FED6E0ABDEC028BDD
:1033900010BD12F11A0F1BDA11F0004F09D010F016
:1033A000004F0CBF9FED680A9FED680ABDEC028BD1
:1033B00010BD80EE208A18EE100AFFF7B1FF042836
:1033C00008BF00F0EDF8B0EE480ABDEC028B10BD6E
:1033D0004200B2EB410F37D910F0004F19BFDFEDBB
:1033E0005C1A9FED5C1ADFED5C1A9FED5C1AB0EE83
:1033F000602A0A46F1EE400A80F00041B0EE420A2F
:1034000010460A1A5200B2F1807F34D2484010F0C0
:10341000004FDFED532A9FED533A1DBFBEEE002A49
:1034200071EEE21A31EE431AB6EE002A04BF71EED5
:10343000A21A31EE031AF0EE402A42EE602A40EE64
:10344000020A82EEA02A18E011F0004F04BF9FED9F
:10345000461AF0EE411AD4D010F0004F1CBFDFED39
:10346000431A9FED431A00E026E004BFDFED411A46
:103470009FED411AC5E780EE202A22EE020ADFED19
:103480003F0ADFED3F2ABDEC028B40EE202ADFED44
:103490003D0A40EE220ADFED3C2A40EE202ADFED15
:1034A0003B0A40EE220A22EE000A00EE201A31EE1C
:1034B000020A30EE210A10BD4FF07F42B2EB400FFE
:1034C00028BFB2EB410F05D2BDEC028BBDE8104026
:1034D00000F062B840EA01035B0008BF41F0FF4121
:1034E0000BD0B2EB400F08BFB2EB410F08D120F078
:1034F000804000EE100A21F0804100EE901A37E77C
:10350000B2EB400F12BF5FEA410240F0FF4001F012
:1035100000413FF42DAF4A0092EA40033FF528AF47
:10352000002AACBF9FED1A1A9FED1A1A20EE010A6D
:1035300060EE810A10EE100A10EE901A18E70000F3
:10354000DB0FC9BFDB0FC93FDB0F4940DB0F49C0B1
:103550000000C9BF22AAFDB90000C93F22AAFD3957
:103560000060ED3EC30ACE3700000000000049C0F5
:1035700022AA7DBA0000494022AA7D3A2DAD65BD40
:103580008FB8D53D0FB511BE61C84C3EA8AAAABEE2
:103590000000804F0000802F30EE200A70470000AE
:1035A0009FED020A20EE000A7047000000000010A4
:1035B00070470022134601E08354521C8A42FBDB11
:1035C0007047000010B504460420FDF7E5FE0148F1
:1035D000046010BD2C00002070B5054600244FF497
:1035E0007A7603E0304600F005F8641CAC42F9D36B
:1035F00070BD000070B54FF0E02500216C69094AEC
:10360000AB6912685043AA699A42FCD002D2A3EB7C
:10361000020302E0A4EB020633441944134681423C
:10362000F1D370BD2C00002003490A685206FCD576
:10363000C2B24A60704700000010014010B5044655
:103640002DED048B1C3000EE100ADFED218AB8EE60
:10365000400AF0EE680AFFF777FEB0EE408AF0EE1F
:10366000680AB3EE0C0AFFF76FFE38EE409A204668
:1036700000F084FD9FED171B53EC112B00F092FD21
:103680009FED160A41EC180B29EE000A10EE100A05
:1036900000F070FF9FED121B53EC112B00F016FC95
:1036A0009FED111B53EC112B00F010FC9FED101B34
:1036B00053EC112B00F076FD53EC182B00F070FE4C
:1036C00000F02AFBBDEC048B00EE100A10BD0000D8
:1036D00000007A449A9999999999B93F0000344326
:1036E0006F1283C0CA2109400000000000806640BC
:1036F000000000000070B74010B504462DED048BAB
:103700001E3000EE100ADFED218AB8EE400AF0EE1E
:10371000680AFFF719FEB0EE408AF0EE680AB3EED1
:103720000E0AFFF711FE38EE409A204600F026FD03
:103730009FED171B53EC112B00F034FD9FED160A83
:1037400041EC180B29EE000A10EE100A00F012FFEF
:103750009FED121B53EC112B00F0B8FB9FED111BDA
:1037600053EC112B00F0B2FB9FED101B53EC112B0F
:1037700000F018FD53EC182B00F012FE00F0CCFA0C
:10378000BDEC048B00EE100A10BD000000007A446E
:10379000B81E85EB51B8AE3F000034436F1283C0B2
:1037A000CA210940000000000080664000000000BF
:1037B0000070B740064B30B1012807D10A460221FC
:1037C0001846FDF7E6B90A460121F9E770470000FF
:1037D0000004024092B000200290039004900590F3
:1037E0000690079014210AA8FCF7E9FDFDF7E4F91B
:1037F0004FF4B4770823022219213846FFF79AFACA
:10380000B420FFF7DFFEFCF7A1FFFDF7F9FF00F0A2
:103810003FFA6F496F4C4FF478400860A0882080D1
:10382000E188618000F028FAE08800F02BFA4FF47C
:103830007A794846FFF7D0FE10254FF4A5780A2183
:1038400002A8FFF7B6FE0A2105A8FFF7B2FE052180
:1038500008A8FFF7AEFE08A8FCF7A4FD10B10128E8
:103860007ED182E05CA0CDE900504FF49176102328
:10387000C82231461E20FFF732F902A800F0BCF83A
:103880006420FFF7A9FE02A8CDE900501023C8224A
:1038900031467320FFF723F951A0CDE900504FF4D2
:1038A0009B761023C82231461E20FFF718F905A881
:1038B00000F0A2F86420FFF78FFE05A8CDE90050C4
:1038C0001023C82231467320FFF709F902A8FCF73C
:1038D00069FD208105A8FCF765FD608121882289AA
:1038E000114489B22180628810446080084600F04B
:1038F000C3F9608800F0C6F937A0CDE90050102365
:10390000C822464641461E20FFF7E9F800950523E8
:10391000228831467320FFF7A7F831A0CDE9005087
:103920001023C8223E4639461E20FFF7D8F80095DE
:103930000523628831467320FFF796F800F098F867
:103940000C28FBD14846FFF747FE4FF6FF70FDF706
:10395000EBFEA0882080E188618000F08DF900E016
:1039600014E0E08800F08EF910E00FA800F044F8B1
:103970000FA8FCF717FD00EE100A1649322310318C
:10398000B8EEC00A1A46081FFFF71AFC16A0CDE9C8
:103990000050C822102351001E20FFF7A0F8009508
:1039A0000523228841467320FFF75EF810A0CDE979
:1039B00000501023C8224FF4DC711E20FFF78FF84F
:1039C00000950523628839467320FFF74DF836E7E6
:1039D0004C00002000000020696E7075745F780054
:1039E000696E7075745F7900785F6E6F773D000067
:1039F000795F6E6F773D00002DE9F843002507469B
:103A00002E46DFF8688000F033F8C4B20A20FFF7D2
:103A1000E3FD00F02DF8A04215D1FF2C15D0012EAA
:103A20001CD018F804002A281CD0412800D12D20D1
:103A300078550126009618F8042010231E210A202C
:103A4000FFF7F8F80AE0FF2C08D1012E06D100F0AC
:103A50000FF8FF2802D16D1C0026EDB2FFF7C4F865
:103A6000052DD0D30020BDE8F883000039000020E8
:103A70002DE9F84F00200122784F160200903146C0
:103A80003846FDF786F8012291037548FDF781F865
:103A9000744D01224FF4A0712846FDF77AF8724860
:103AA0000022314604683846FDF773F8DFF8BCA100
:103AB000A1B200225046FDF76CF84FF4007B594646
:103AC0002846FDF761F800287ED0A9143846FDF796
:103AD0005BF8002879D080212846FDF755F80028AA
:103AE00074D031466248FDF74FF800286FD0FF20B0
:103AF0000090012231465F48FDF74BF81420FFF794
:103B000079FD0022B1015648FDF743F8A1B2002229
:103B10005046FDF73EF859462846FDF735F800288F
:103B20007FD04FF480594946B8463846FDF72CF807
:103B3000002878D080212846FDF726F8002874D088
:103B40004B4F31463846FDF71FF8002872D001224E
:103B500091034348FDF71DF81420FFF74BFD0022A9
:103B600040212846FDF715F8A1B200225046FDF786
:103B700010F859462846FDF707F848B3494640462D
:103B8000FDF702F8F0B380212846FCF7FDFFD0B323
:103B900031463846FCF7F8FFB0B3012240212846F1
:103BA000FCF7F7FF1420FFF725FD002231462846D9
:103BB000FCF7EFFFA1B200225046FCF7EAFF59469E
:103BC0002846FCF7E1FF04E025E026E027E018E0C6
:103BD00032E068B349464046FCF7D6FF48B380213F
:103BE0002846FCF7D1FF78B331463846FCF7CCFFC6
:103BF00058B3012231462846FCF7CBFF1420FFF7CB
:103C0000F9FC05E01AE01BE01CE00AE00BE00CE028
:103C10000098BDE8F88F0320FBE70220F9E70120B8
:103C2000F7E70720F5E70620F3E70520F1E701E0D5
:103C30000CE00DE00420ECE70B20EAE70A20E8E7BF
:103C40000920E6E70820E4E704E005E00F20E0E7CC
:103C50000E20DEE70D20DCE70C20DAE7001C024036
:103C600000040240000802407C46000800180240A0
:103C700000000240000C024001490860704700004B
:103C80003C040040014908607047000040040040C7
:103C900010B5154888B013490160002442F20F7135
:103CA000C0E902411D2104614160FDF7FDFB602078
:103CB000009041F2D600CDE90104082269460A4885
:103CC000FDF78AFB0C2269460748FDF785FB0821B2
:103CD0000548FDF72DFC0C210348FDF729FC08B031
:103CE00010BD0000000400405C01002010B5002958
:103CF0000AD00878002807D005487844FCF7E6FC8D
:103D0000002801D0002010BD0248784410BD0000FA
:103D1000B2680000AA68000021F00042A2F16052DF
:103D2000B2F5801F01F0004328BFD2F17F6C0BD9A0
:103D30005FEA001C43EAC20242EB507018BF7047B2
:103D400028BF20F001007047B2F5801FBCBF1846A5
:103D500070474FEA410C1CF5001F02D2084600F0E4
:103D60007FBC70B500F0C8FA00000089FFF7F6BF0D
:103D70004FF00040A0F580007047000010B591EAB8
:103D8000030F48BF83F0004300F11283841A71EBE4
:103D9000030C05D2121943EB0C03001B61EB0C0161
:103DA000DFF824E14FEA1154A4EB135C1EEA430F41
:103DB00018BF9EEA445F73D023EA0E03DCF1200EA5
:103DC00021EA045143F4801332D322FA0CFE10EBA3
:103DD0000E0023FA0CFE41EB0E01CCF1200E03FA8B
:103DE0000EFE10EB0E0051F10001B1F5801FCCF179
:103DF000200E32D201EB045112FA0EF2BDE810404F
:103E000058BF7047401C38BF5FEA420218BF704776
:103E1000002814BF20F0010041F100014FEA4103E6
:103E200013F5001F38BF7047A1F1C04100F0B2BACE
:103E3000012A43EB0302ACF1200CDCF11F0E32BF70
:103E40004FF0000E23FA0CF310EB030041EB04518A
:103E5000B4EB115FD0D0A1EB045101F580114908FA
:103E60005FEA300001EB04510ED350F1000038BF7F
:103E700012FA0EFE08D1BDE81040C9E7401C38BF59
:103E80005FEA4202CAD1C3E7BDE810404FEA4103EE
:103E900013F5001F38BF7047A1F1C04100F07ABA96
:103EA0009EEA445F08D011EA5E0FBDE8104004BFEF
:103EB00001F0004100207047BDE8104070B500F0EF
:103EC0001BFA00BF64FBBE3E0000E0FF2DE9C041CD
:103ED00030B4DFF8A0C23CEA111418BF3CEA131456
:103EE00000F0EC8081EA03051CEA111444EAD57461
:103EF00018BF1CEA131500F0C780A4EB05044FF0AF
:103F0000004545EAC12145EAC32341EA505143EA4D
:103F1000525304F17F74994204F500344FEAC020F3
:103F20004FEAC22208BF904200F09C804FEA13651E
:103F30000FF24016765D4FEA134506FB05F7C7F111
:103F4000807706FB07F74FEAD737A7FB036876426F
:103F5000C8F58038A7FB06CE38BFA8F1010807FBDB
:103F600008E64FF0000EA6FB028CE6FB03CEDCF168
:103F7000000CCEF1004E38BFAEF1010EA6FB0C587E
:103F80004FF000074FF00005E6FB0E87A1FB08C6C7
:103F9000A0FB07CE16EB0E0645F10005E1FB076519
:103FA00015F1E04E7EBFA4F580345FEA46066D4110
:103FB00016F1800745F100054FEA17274FEA06661C
:103FC00047EA0567A6F1DE46B6F1805F4FEA1525A0
:103FD0001FD9384624F0010C05EBC471BCF1FE6F0B
:103FE00001EB0C1102D8F0BCBDE8008124425CBF9B
:103FF00001F5801E9EEAC47F02D4F0BCBDE80081BA
:10400000244238D4F0BCA1F1C041BDE8004100F029
:10401000C1B94FEAD22242EA43524FEAD323A7FB67
:1040200002864FEAD02040EA415007FB03661EEAB1
:104030000E0F4FEAD12105FB026658BFA6EB0056D2
:10404000B6EB00564FEA520E4EEAC37E18EB0E0E48
:1040500056EB530EBDD518EB02085E417F1C55F19F
:104060000005B6E74FF480154FF000074FF000064B
:104070004FF00008ADE7F0BC4FF0000001F1C04187
:1040800001F00041BDE8008111EA0C1F0CEA131594
:1040900000D00CE013EA0C1F00F025804FF0000068
:1040A000F0BC81EA030101F00041BDE80081F0BCF1
:1040B000BDE8004181EA030100F06CB9F0BCBDE845
:1040C000004170B500F018F9097EFC3E00F007B819
:1040D00081EA03014FF0000001F00041704781EADE
:1040E000030100F057B9F0BCBDE800414FF00000FB
:1040F00021497047FFFDFBF9F7F5F4F2F0EEEDEB27
:10410000E9E8E6E4E3E1E0DEDDDBDAD8D7D5D4D3D5
:10411000D1D0CFCDCCCBCAC8C7C6C5C4C2C1C0BF21
:10412000BEBDBCBBBAB9B8B7B6B5B4B3B2B1B0AF27
:10413000AEADACABAAA9A8A8A7A6A5A4A3A3A2A10B
:10414000A09F9F9E9D9C9C9B9A99999897979695C6
:1041500095949393929191908F8F8E8E8D8C8C8B62
:104160008B8A8989888887878685858484838382EA
:10417000828181800000FF070000F87FB0FA80F3A1
:1041800010FA03F10AD0C3F11D0303F580634FEA6F
:1041900041504FEA035202EBD12170474FF000002B
:1041A00070470000DFF848C170B51CEA111E1EBF41
:1041B0001CEA13159EEA0C0F95EA0C0F00F06F80B5
:1041C00081EA030423EA4C134EEAD47E21EA4C111F
:1041D00041F4801143F48013AE44A1FB024CA0FBD8
:1041E0000365AEF17F7E361955EB0C05A1FB034C40
:1041F0004CF10003A0FB021C16EB0C06654153F1C9
:104200000003094218BF46F0010613F4007F0BD1EA
:104210004FEA03314FEA0530340341EA155140EAD1
:1042200016506FF003020AE04FEAC3214FEAC5209F
:10423000F40241EA555140EA56506FF0020202EB97
:104240002E4201EB025585EACE710AD05FEA440C9A
:1042500018BF24F0004450F1000041F1000120EAB1
:10426000D47040F2FE7C624500D270BDA84214BFFB
:104270004FF080444FF04044002E08BF0024BEF1B0
:10428000806FA8BFA1F1C041BDE8704080F282807C
:104290004FF0000001F1C04101F0004170479EEA7B
:1042A0000C0F0CEA131518BF95EA0C0F06D04FF04F
:1042B000000081EA030E0EF0004170BD00F01CF812
:1042C0008900013E00F007B800F009B84FEA430C3E
:1042D0005FEA5C5C08D081EA030100F05BB84FEA5A
:1042E000410C5FEA5C5CF6D14FF000000149704779
:1042F0000000FF070000F87F0EF1020E2EF0030E03
:104300005EF8046B364205D4012A43EB030515F52C
:10431000001F12D8012841EB010C1CF5001F0CD81E
:104320000ED14FEAD17C15F5001F0CEB4C0C0CF1B3
:10433000020C08BF4CEBD37C04E04FF0080C01E00A
:104340004FEAD37C0CEB4C0526FA05F606F007067F
:10435000B6F1040C06D20EEB860CBDE870404CF0B2
:10436000010C6047DFE80CF0090B02024FF000413E
:104370004FF00000A1F5002170BD1946104601283C
:1043800051EB010418BFD4F5001484BF002001F0E4
:10439000004170BD0808A0F500114FEA31017047D7
:1043A00010B591EA030F48BF83F000433FF5EEAC30
:1043B000841A71EB030C07D212198CF0004C43EBFA
:1043C0000C03001B61EB0C01DFF8A4E14FEA115470
:1043D000A4EB135C1EEA430F18BF9EEA445F00F093
:1043E000B08023EA6E03524221EA0451C3EB6E030C
:1043F00038BF5B1EDCF1200E25D322FA0CFE10EB39
:104400000E0043FA0CFE41EB0E01CCF1200E03FA34
:104410000EFE10EB0E0051F10001CCF1200E29D45C
:1044200012FA0EF201EB0451BDE8104058BF70477C
:10443000401C1CBFB2F1004F704700280CBF491C44
:1044400020F00100704712EB020E43EB030218BF8D
:104450004FF0010E4EEA4202ACF1200CDCF11E0ED0
:1044600054D943FA0CFE10EB0E0051F1FF31CCF1A0
:104470001E0ED5D50EF1010E12FA0EFE404141EB93
:10448000010101EB445C5FEA5C5C10D910EBDE706B
:1044900001EB045138BFBEF1004FBDE8104018BF1A
:1044A000704700280CBF491C20F00100704730D233
:1044B0004FEAD42C11F5001124F400641BD0B1FA9A
:1044C00081F20B3AA41AA41ED2F12003914030FAD3
:1044D00003F31943904001EBCC71002C01EB045124
:1044E000BDE81040A8BF704701F1C0414FF0000087
:1044F00001F000417047B0FA80F310FA03F100D1E7
:1045000010BDE41A173C4805C90AE4E701EB045161
:1045100010BD491001EB0451BDE810404FEA3000D6
:1045200002E04FF0000170474A0008BF0042F8D097
:10453000B2F5001F28BF704701F000414FF00000A6
:1045400070479EEA445F07D011EA5E0FBDE8104055
:1045500004BF002100207047BDE8104070B5FFF790
:10456000CBFE00BF40DFF63E83F0004110467047AF
:104570000000E0FF43004FEAD30C4FEA3C0C4340FD
:104580001FBF40070CF1605113F0FE4F70471CF045
:10459000006F03D100200CF0004170470CF0004385
:1045A00043EA507010B540EACC0000F00EF800BFAE
:1045B000000000924FEA0001FFF7ECBE4FF000410F
:1045C0004FF00000A1F5002170470EF1020E2EF011
:1045D000030E5EF8044B244204D44FEA4102B2F1C8
:1045E0007F4F11D84FEA4003B3F17F4F0CD80ED163
:1045F0004FEAD07CB2F17F4F0CEB4C0C0CF1020C6B
:1046000008BF4CEBD17C04E04FF0080C01E04FEA0E
:10461000D17C0CEB4C0324FA03F404F00704B4F14E
:10462000040C06D20EEB840CBDE810404CF0010CDB
:104630006047DFE80CF0070802024FF00040A0F5E9
:10464000800010BD0846420018BFD2F1807288BFBA
:1046500000F0004010BD4FF04070E1EE100A7047CE
:10466000FF2141EAD050C005704700000000010260
:10467000030401020304060708090000008000008B
:104680000020000000080000000200000000000000
:104690000000000000000000000000003F4000009B
:1046A000000000000000300040003000400000002A
:1046B00009000BC03D000BC03D00090018C024409C
:1046C0007FE0224031800000180024C01B000D80D4
:1046D0003240018003801C4027401C80074000407E
:1046E000100060000000000000000000000000005A
:1046F00000001F80204040200000402020401F80FC
:1047000000000000090006001F80060009000000EC
:10471000040004003F80040004000000001000605A
:104720000000000000000000040004000400040079
:104730000400000000000040000000000000000035
:10474000002001C006003800400000001F8020400B
:10475000204020401F800000000010403FC000406B
:104760000000000018C021402240244018400000F2
:1047700010802040244024401B80000002000D00D7
:1047800011003FC0014000003C80244024402440F0
:10479000238000001F802440244034400380000018
:1047A0003000200027C03800200000001B8024407B
:1047B000244024401B8000001C0022C022402240D4
:1047C0001F80000000000000084000000000000002
:1047D0000000000004600000000000000000040071
:1047E0000A0011002080404009000900090009006A
:1047F0000900000000004040208011000A00040071
:104800001800200023402400180000001F802040D2
:10481000274029401F400000004007C039000F001A
:1048200001C0004020403FC0244024401B800000C5
:104830001F802040204020403080000020403FC0AA
:10484000204020401F80000020403FC024402E40D8
:1048500030C0000020403FC024402E003000000047
:104860000F001080204022403380020020403FC0D3
:10487000040004003FC02040204020403FC02040B2
:10488000204000000060202020203FC020002000A9
:1048900020403FC024400B0030C0204020403FC09B
:1048A00020400040004000C03FC03C0003C03C002E
:1048B0003FC0000020403FC00C4023003FC020000C
:1048C0001F802040204020401F80000020403FC02B
:1048D00024402400180000001F802140214020E0D7
:1048E0001FA0000020403FC02440260019C0004007
:1048F00018C0244024402240318000003000204075
:104900003FC020403000000020003F8000400040B9
:104910003F80200020003E0001C00700380020003A
:10492000380007C03C0007C038000000204039C0F4
:10493000060039C0204000002000384007C0384041
:1049400020000000304021C02640384020C0000038
:10495000000000007FE040204020000000007000C8
:104960000C000380004000000000402040207FE059
:1049700000000000000020004000200000000000B7
:1049800000100010001000100010001000000000C7
:1049900040000000000000000000028005400540CB
:1049A00003C0004020003FC00440044003800000DA
:1049B0000000038004400440064000000000038023
:1049C000044024403FC000400000038005400540F3
:1049D00003400000000004401FC024402440200089
:1049E000000002E0055005500650042020403FC062
:1049F0000440040003C000400000044027C0004001
:104A00000000000000100010041027E0000000006B
:104A100020403FC00140070004C004402040204027
:104A20003FC000400040000007C0040007C0040071
:104A300003C00000044007C00440040003C000405D
:104A4000000003800440044003800000041007F0CD
:104A50000450044003800000000003800440045020
:104A600007F00010044007C00240040004000000EA
:104A7000000006400540054004C00000000004009E
:104A80001F800440004000000400078000400440F4
:104A900007C000400400070004C0018006000400B5
:104AA000060001C0070001C006000000044006C067
:104AB000010006C0044000000410071004E001805B
:104AC000060004000000044005C006400440000049
:104AD0000000000004007BE0402000000000000017
:104AE0000000FFF000000000000040207BE0040018
:104AF0000000000040008000400020002000400036
:104B000000000000000000000000000000000000A5
:104B10000000000000001FCC000C0000000000009E
:104B20000000080030006000080030006000000055
:104B3000022003FC1E20022003FC1E200220000095
:104B400000000E1811043FFF10840C7800000000D4
:104B50000F0010840F3800C0077818840078000018
:104B600000780F8410C411240E9800E4008400081B
:104B70000800680070000000000000000000000055
:104B800000000000000007E01818200440020000A8
:104B9000000040022004181807E000000000000098
:104BA0000240024001800FF00180024002400000FC
:104BB0000080008000800FF80080008000800000EE
:104BC0000001000D000E00000000000000000000C9
:104BD0000000008000800080008000800080008055
:104BE0000000000C000C00000000000000000000AD
:104BF0000000000600180060018006001800200078
:104C0000000007F0080810041004080807F000006E
:104C10000000080408041FFC000400040000000059
:104C200000000E0C10141024104411840E0C00000F
:104C300000000C1810041104110412880C700000FC
:104C4000000000E00320042408241FFC00240000CE
:104C500000001F98108411041104108810700000C7
:104C6000000007F008881104110418880070000083
:104C700000001C00100010FC13001C0010000000BD
:104C800000000E3811441084108411440E380000C6
:104C900000000700088C10441044088807F000004A
:104CA000000000000000030C030C000000000000E6
:104CB00000000000000101060000000000000000EC
:104CC00000000080014002200410080810040000C9
:104CD00002200220022002200220022002200000E6
:104CE00000001004080804100220014000800000A9
:104CF00000000E001200100C106C10800F0000005D
:104D000003E00C1813E4142417C4082807D000008B
:104D10000004003C03C41C40074000E4001C0004E5
:104D200010041FFC1104110411040E88007000000F
:104D300003E00C1810041004100410081C100000EC
:104D400010041FFC100410041004080807F00000F1
:104D500010041FFC1104110417C4100408180000EB
:104D600010041FFC1104110017C0100008000000FF
:104D700003E00C181004100410441C7800400000DC
:104D800010041FFC10840080008010841FFC10049D
:104D90000000100410041FFC1004100400000000A8
:104DA00000030001100110011FFE100010000000A0
:104DB00010041FFC110403801464181C100400006C
:104DC00010041FFC1004000400040004000C000088
:104DD00010041FFC1F0000FC1F001FFC100400003B
:104DE00010041FFC0C04030000E010181FFC10004E
:104DF00007F00808100410041004080807F0000069
:104E000010041FFC10841080108010800F00000020
:104E100007F0081810241024101C080A07F20000DC
:104E200010041FFC1104110011C011300E0C0004FD
:104E300000000E1C11041084108410441C38000063
:104E40001800100010041FFC1004100018000000CF
:104E500010001FF810040004000410041FF81000D4
:104E600010001E0011E0001C007013801C001000D8
:104E70001FC0103C00E01F0000E0103C1FC00000FD
:104E80001004180C163401C001C01634180C10049C
:104E900010001C00130400FC13041C001000000090
:104EA0000804101C1064108413041C041018000063
:104EB0000000000000007FFE4002400240020000AF
:104EC000000030000C0003800060001C00030000A4
:104ED00000004002400240027FFE0000000000008F
:104EE00000000000200040004000400020000000C2
:104EF00000010001000100010001000100010001AA
:104F00000000400040002000000000000000000001
:104F100000000098012401440144014400FC000405
:104F200010001FFC008801040104008800700000CC
:104F300000000070008801040104010400880000E2
:104F40000000007000880104010411081FFC000427
:104F5000000000F8014401440144014400C800007D
:104F60000000010401040FFC1104110411001800D9
:104F7000000000D601290129012901C9010600000C
:104F800010041FFC008401000100010400FC000467
:104F900000000104190419FC0004000400000000D2
:104FA0000000000300010101190119FE00000000CA
:104FB00010041FFC0024004001B4010C0104000097
:104FC0000000100410041FFC000400040000000096
:104FD000010401FC0104010001FC0104010000FCCA
:104FE000010401FC008401000100010400FC000434
:104FF000000000F8010401040104010400F80000AD
:10500000010101FF00850104010400880070000017
:1050100000000070008801040104010501FF000187
:105020000104010401FC008401040100018000006E
:10503000000000CC01240124012401240198000077
:1050400000000100010007F8010401040000000055
:10505000010001F8000400040004010801FC000440
:10506000010001800170000C00100160018001004E
:1050700001F0010C003001C00030010C01F0010012
:1050800000000104018C00740170018C0104000017
:10509000010101810171000E001801600180010011
:1050A00000000184010C013401440184010C000062
:1050B000000000000000000001003EFC4002400231
:1050C0000000000000000000FFFF000000000000E2
:1050D0000000400240023EFC010000000000000011
:1050E00000006000800080004000400020002000A0
:1050F00000000000000000000000000000000000B0
:10510000000000000000000000000000000000009F
:10511000000000000000000000000000000000008F
:105120000000000F80380FFE380F803800000000AC
:10513000000000000000000000000000000001006E
:10514000000600000C0000380000310000060000DE
:105150000C000038000030000000000000000000DB
:1051600061800067F807F98000618000618000615C
:10517000800061800067F807F9800061800000000E
:1051800000000000000001C0E003E0F00630080469
:1051900018081FFFFE040E080787F00381E00000D7
:1051A0000000000001F000060C00040408060C706A
:1051B00001F9C0000E00003BE000EC1807080804ED
:1051C0000C180003E00000000001E00007F003F805
:1051D00018041C0804170807E1D003C0E00023B03E
:1051E000003C080020080000100000000000000142
:1051F00000003100003200001C0000000000000030
:10520000000000000000000000000000000000009E
:10521000000000000000000000000000000000008E
:105220007F0001FFC00780F00C0018100004200070
:10523000020000000000002000021000040C001812
:105240000780F001FFC0007F0000000000000000A8
:1052500000000000000000000000000042000066A6
:1052600000006600003C0000180003FFC0001800AA
:10527000003C0000660000660000420000000000E4
:10528000080000080000080000080000080001FFF6
:10529000C000080000080000080000080000080026
:1052A00000000000000100003100003200001C007E
:1052B00000000000000000000000000000000000EE
:1052C00000000000000000000800000800000800C6
:1052D00000080000080000080000080000080000A6
:1052E00008000008000000000000000000000000AE
:1052F0003800003800003800000000000000000006
:10530000000000000000000000000000000000009D
:10531000000600001C000070000180000E00003834
:105320000000C0000700001C00003000000000006A
:10533000000000007F8001FFE00380700600180479
:10534000000804000806001803807001FFE0007FD9
:1053500080000000000000000000010008010008BB
:1053600001000803FFF807FFF8000008000008002C
:10537000000800000000000000000001C03802C06A
:1053800058040098040118040218040418061C1894
:1053900003F81801E0F80000000000000000000120
:1053A000C0E003C0F0040008040808040808061858
:1053B0000803F41801E7F00001E00000000000001D
:1053C000000000000300000D00001100006100005B
:1053D000810803010807FFF80FFFF800010800012A
:1053E000080000000000000000E007FCD0060808EC
:1053F000061008061008061008061838060FF006F2
:1054000007C0000000000000000000003F8001FF16
:10541000E00384300208180410080410080410087F
:10542000071810030FF00007C00000000000000084
:10543000000003C0000700000600000600F8060791
:10544000F806180006E00007000006000000000053
:1054500000000001E1E003F7F0063410041808042E
:105460001808040C08040C0806161803F3F001C110
:10547000E000000000000000F80003FC30030638E4
:105480000402080402080402080404100308F001DE
:10549000FFC0007F000000000000000000000000CE
:1054A0000000000000000000703800703800703804
:1054B00000000000000000000000000000000000EC
:1054C000000000000000000000000000301A003062
:1054D0001C000000000000000000000000000000B0
:1054E000000000000000000800001400002200007E
:1054F00041000080800100400200200400100800EC
:105500000800000000000000210000210000210030
:1055100000210000210000210000210000210000E6
:105520002100002100000000000000000000080031
:1055300008040010020020010040008080004100AB
:10554000002200001400000800000000000000031A
:10555000C00004C000040000080038080F38080824
:10556000380810000C300007E00003C00000000005
:10557000000000003F8000FFE0038070020F100673
:10558000708804C088048308047F8802C0900301E7
:105590002000FE400000080000180001F8003E084E
:1055A00001C20007020007E20000FE00001FC80061
:1055B00001F800003800000804000807FFF807FFA2
:1055C000F80408080408080408080408080618086D
:1055D00003F41801E7F00001E00000000000000003
:1055E0003F8001FFE00380700200180400080400FF
:1055F000080400080400100600200780C000000016
:1056000004000807FFF807FFF80400080400080476
:10561000000804001802001003807001FFE0007F02
:105620008000000004000807FFF807FFF8040808DE
:10563000040808040808040808043E0804000806D2
:10564000001801006000000004000807FFF807FFD1
:10565000F8040808040800040800040800043E00D8
:1056600006000006000001800000000000000000AD
:105670003F8001FFE0038070060018040008040268
:10568000080402080203F00783F000020000020091
:1056900004000807FFF807FFF804080800080000E6
:1056A000080000080000080004080807FFF807FFCA
:1056B000F8040008000000000000040008040008CE
:1056C00004000807FFF807FFF804000804000804B6
:1056D00000080000000000000000000000060000BC
:1056E0000700000104000104000104000307FFFE9D
:1056F00007FFFC0400000400000400000400080789
:10570000FFF807FFF8040C08001800003E0004C76B
:10571000800503C80600F8040038040018000008DB
:1057200004000807FFF807FFF8040008000008005D
:105730000008000008000008000008000018000031
:105740006000000004000807FFF807800807FC005D
:10575000007FC00003F80007C0007800078008073A
:10576000FFF807FFF804000804000807FFF8070027
:105770000803C00000E000003800001E0000070021
:105780000001C00400F007FFF80400000000000062
:105790007F8001FFE0038070060018040008040009
:1057A0000806001803003001FFE0007F80000000C1
:1057B00004000807FFF807FFF804040804040004C5
:1057C0000400040400040400060C0003F80001F0C7
:1057D00000000000000000007F8001FFE0038070F7
:1057E0000600880400880400C806003C03003E014F
:1057F000FFE6007F8400000004000807FFF807FFB1
:10580000F8040808040800040C00040F00040BC08E
:105810000610F003F03801E0080000080000000165
:10582000E0F803F030063010041808041808040CDF
:1058300008040C080206180207F00781E0000000C7
:1058400001800006000004000004000004000807B6
:10585000FFF807FFF8040008040000040000060039
:105860000001800004000007FFE007FFF0040018BB
:1058700000000800000800000800000800000804FC
:10588000001007FFE004000004000006000007E02D
:105890000007FE00041FE00001F80000380001E0EE
:1058A000043E0007C00006000004000004000007DA
:1058B000E00007FFC0041FF80007C007F80007FF5B
:1058C00080043FF80007C004F8000700000400004F
:1058D00000000004000806001807C07805F1C800A1
:1058E0003E00001F800463E80780F80600180400EB
:1058F0000800000004000006000007800007E00820
:10590000047C08001FF80007F800180804E00807E6
:10591000000006000004000000000001000806006E
:10592000380400F80403E8040F08047C0805F008B4
:1059300007C0080700180400600000000000000015
:1059400000000000000000000000003FFFFE2000FB
:1059500002200002200002200002200002000000BD
:1059600000000000000008000007000000C0000068
:1059700038000006000001C000003000000E0000EA
:1059800001000000000000000000200002200002D2
:105990002000022000022000023FFFFE0000000065
:1059A00000000000000000000000000000000000F7
:1059B000000800001000003000002000003000004F
:1059C00010000008000000000000000000000100BE
:1059D00000010000010000010000010000010000C2
:1059E00001000001000001000001000001000001B1
:1059F0000000000000000000002000002000001057
:105A00000000100000000000000000000000000086
:105A1000000000000000000000F00019F8001B1852
:105A2000002208002608002408002410003FF80087
:105A30001FF800000800001800000004000007FF25
:105A4000F80FFFF0001818001008002008002008C8
:105A5000003018001FF0000FC00000000000000020
:105A600007C0001FF00018300020080020080020A8
:105A700008003C08001C100000600000000000004E
:105A80000000000007C0001FF000381800200800C8
:105A9000200800200804101007FFF80FFFF0000096
:105AA000100000000000000000000007C0001FF010
:105AB00000123000221800220800220800320800DC
:105AC0001E10000E2000000000000000200000203A
:105AD0000800200801FFF803FFF80620080420084A
