:020000040800F2
:1000000078070020B11B0008A5090008A70900080F
:10001000AB090008AF090008B309000800000000A0
:10002000000000000000000000000000B709000808
:10003000B909000800000000BB090008BD0900085C
:10004000CB1B0008CB1B0008CB1B0008CB1B0008F8
:10005000CB1B0008CB1B0008CB1B0008CB1B0008E8
:10006000CB1B0008CB1B0008CB1B0008CB1B0008D8
:10007000CB1B0008CB1B0008CB1B0008CB1B0008C8
:10008000CB1B0008CB1B0008CB1B0008CB1B0008B8
:10009000CB1B0008CB1B0008CB1B0008CB1B0008A8
:1000A000CB1B0008CB1B0008CB1B0008CB1B000898
:1000B000CB1B0008CB1B0008CB1B0008CB1B000888
:1000C000CB1B0008CB1B0008CB1B0008CB1B000878
:1000D000CB1B0008251B0008CB1B0008CB1B00080E
:1000E000CB1B0008CB1B0008CB1B0008CB1B000858
:1000F000CB1B0008CB1B0008CB1B0008CB1B000848
:10010000CB1B0008CB1B0008CB1B0008CB1B000837
:10011000CB1B0008CB1B0008CB1B0008CB1B000827
:10012000CB1B0008CB1B0008CB1B0008CB1B000817
:10013000CB1B0008CB1B0008CB1B0008CB1B000807
:10014000CB1B0008CB1B0008CB1B0008CB1B0008F7
:10015000CB1B0008CB1B0008CB1B0008CB1B0008E7
:10016000CB1B0008CB1B0008CB1B0008CB1B0008D7
:10017000CB1B0008CB1B0008CB1B0008CB1B0008C7
:10018000CB1B0008CB1B000800F002F800F04FF872
:100190000AA090E8000C82448344AAF10107DA45E2
:1001A00001D100F044F8AFF2090EBAE80F0013F0E5
:1001B000010F18BFFB1A43F001031847406000000D
:1001C00060600000103A24BF78C878C1FAD852079E
:1001D00024BF30C830C144BF04680C6070470000C1
:1001E0000023002400250026103A28BF78C1FBD840
:1001F000520728BF30C148BF0B607047642903F025
:100200009B82002070471FB505F012F903F0AAFC8D
:1002100004000020002104F003FF401C6060002067
:10022000002104F0E7FEE0601FBD10B510BD03F033
:1002300074FC1146FFF7E7FF00F08BFA03F0F6FEBF
:1002400003B4FFF7F2FF03BC01F00CFC014640F2DF
:10025000CB7033291DD2DFE801F01A1D22272C2F85
:100260003235383B3E4144474A4D505356595C5F06
:100270006265686B6E7174777A7D808386898C8FF6
:100280009295989B9EA1A4A7AAADB0B3B60040F2E8
:10029000CB709BE040F2357040F2C67096E040F2C1
:1002A000357040F2BC7091E040F2357040F2B770AA
:1002B0008CE040F2B27089E040F2AD7086E040F22E
:1002C000A37083E040F29E7080E040F29D707DE07C
:1002D00040F29C707AE040F2977077E040F28A70CA
:1002E00074E040F2857071E040F27E706EE040F2A2
:1002F0007B706BE040F2767068E040F26C7065E015
:1003000040F2677062E040F262705FE040F25A7063
:100310005CE040F2557059E04FF4EA6056E040F27C
:10032000497053E040F2447050E040F23F704DE0BD
:1003300040F23A704AE04FF4E66047E040F229703C
:1003400044E040F2247041E040F21E703EE040F292
:1003500017703BE040F2127038E040F20B7035E06D
:1003600040F2047032E04FF4E0602FE040F2F960B8
:100370002CE040F2F46029E040F2ED6026E040F22B
:10038000E66023E040F2DF6020E040F2DA601DE04A
:1003900040F2D6601AE040F2D16017E040F2CB6044
:1003A00014E040F2C56011E040F2BE600EE04FF490
:1003B000D7600BE040F2AE6008E040F2A76005E0D5
:1003C00040F2A66002E040F2A46000BF00BF7047A8
:1003D00010B504462146FBA003F06EF92146FE4805
:1003E00002F0B3FD0A2001F01DFB10BD014640F2F2
:1003F00035701A2971D00FDC3BD2DFE801F0383BB1
:1004000040454A4D505356595C5F6265686B6F7248
:1004100075787B7F8285888B28296ED00CDCA1F1D2
:100420001B020D2AE8D2DFE802F07C7F82888B8EE7
:100430009194979A9DA0A3002F296ED008DCA1F17A
:100440002902062AD8D2DFE802F0999C9FA2A5A82B
:1004500032296FD004DC30296DD0312909D1A5E0D3
:10046000A1F26C72002A67D0322AF7D1A7E040F2DD
:100470003570A7E040F26C7040F23A70A2E040F2B2
:100480006C7040F23F709DE040F26C7040F244703E
:1004900098E040F2477095E040F24C7092E040F2F4
:1004A0004F708FE040F256708CE040F25B7089E054
:1004B00040F2617086E040F2677083E040F26C7059
:1004C00080E040F273707DE04FF4EF607AE040F23C
:1004D0007B7077E04FF4F06074E01FE040F28670CC
:1004E00070E040F28C706DE040F28E706AE040F295
:1004F000927067E040F2977064E03CE040F2A170D7
:1005000060E040F2A3705DE040F2AB705AE040F270
:10051000AE7057E040F2B27054E041E040F2B47087
:1005200050E040F2BA704DE040F2C1704AE040F253
:10053000C77047E03DE036E03EE040F2CE7041E07B
:1005400040F2D1703EE040F2D5703BE040F2DC700A
:1005500038E040F2E17035E040F2E37032E040F222
:10056000EC702FE040F2F2702CE040F2F37029E0E2
:1005700040F2F47026E040F2FB7023E040F2FE709F
:1005800020E040F603001DE040F609001AE040F6C6
:100590000F0017E040F6160014E040F6170011E0D7
:1005A00040F619000EE040F61E000BE040F6230076
:1005B00008E040F62B0005E040F26C7002E040F2EB
:1005C0009E7000BF00BF704710B50446214683A04F
:1005D00003F072F82146864802F0B7FC0A2001F0C9
:1005E00021FA10BD2DE9F04F2DED048B83B04FF0B3
:1005F000000801A801F053F901A804F0A1FBB0EE36
:10060000409AF0EE609A51EC190B04F01FFD08EED1
:10061000100A78480068C0F1320000EE100AF8EEC7
:10062000C00A75480068C0F1320000EE100AB8EE4A
:10063000C00A20EE080AF4EEC00AF1EE10FA23D246
:100640009FED6E0AC0EE080A6B4890ED000AB8EE06
:10065000C00A30EEC00AFDEEC08A9FED680AC0EE07
:10066000080ABDEEE00A10EE10AA514664A003F09D
:1006700023F8322518EE904A2246294663A003F05B
:100680001BF84FF0010916E09FED5C0AC0EE080A66
:10069000584890ED000AB8EEC00A30EEC00AFDEEF0
:1006A000C08A322418EE905A2246294657A003F0F9
:1006B00003F84FF000094F480068FFF797FE0090DD
:1006C0004D480068FFF7C2FD83464A4807684A481C
:1006D000066831E0B9F1010F0BD17F1CBDEEC80AED
:1006E00010EE100A98FBF0F100FB118060B9761C47
:1006F0000AE0761CBDEEC80A10EE100A98FBF0F175
:1007000000FB118000B97F1CAF4208DA3846FFF7C2
:100710006DFE8246FFF758FF052001F083F9A642DF
:1007200008DA3046FFF792FD8246FFF751FE0520BA
:1007300001F078F908F10108AF42CBDBA642C9DB32
:100740002D4804602B48056003B0BDEC048BBDE868
:10075000F08F86B0002700BF4FF4A06001F048FA88
:10076000A82001F0FDF84FF4E13001F089F900F024
:100770002FFA00F0C1FD00F0F4FA01F02BF853213C
:1007800040F6045000F0E6FE532140F6045000F01D
:100790002DFF27A20021084600F074FB16480088B0
:1007A00002B20021102000F010FC22A20021402003
:1007B00000F068FB0F48008802B20021502000F0D2
:1007C00004FC39E058205A68616E6B6F6E673D20FB
:1007D00025640D0A000000000020004059205A68DE
:1007E000616E6B6F6E673D2025640D0A000000008E
:1007F000001C0040040000200000002000004842CF
:100800002074656D70203D2020256400526573754D
:100810006C745F595F6E6F77203D2025642C5265A4
:1008200073756C745F585F6E6F77203D2025640090
:10083000583D0000593D000040F2CB70FFF7C8FD65
:1008400040F23570FFF7C0FE44A002F035FF0A20E9
:1008500001F0E8F881E0454800680A2190FBF1F0DA
:100860000FFA80F842460021102000F0AEFB3F480E
:1008700000680A2190FBF1F201FB12000FFA80F8E8
:1008800042460021182000F0A0FB394800680A21E8
:1008900090FBF1F00FFA80F842460021502000F062
:1008A00094FB334800680A2190FBF1F201FB12002F
:1008B0000FFA80F842460021582000F086FB0A20FB
:1008C00001F0B0F8684600F0EAFF684602F070FFF9
:1008D0000646300002D0012839D132E025A002F0CE
:1008E000EBFE04A800F0DBFF012001F09BF802A85A
:1008F00000F0D5FF04A802F05BFF0446214620A0CB
:1009000002F0DAFE194804600A2001F08BF802A810
:1009100002F04EFF054629461CA002F0CDFE144809
:1009200005602046FFF792FC8046FFF751FD01204D
:1009300001F078F82846FFF759FD8046FFF744FE9E
:1009400005E015A002F0B8FEFFF74CFE00BF00BFA7
:100950000A2001F067F8781C87B27CE7496E697459
:1009600020736563636573730A0000000000002054
:1009700004000020506F696E744D6F6465000000C4
:1009800058203D2025642F722F6E000059203D20F5
:1009900025642F722F6E00005869654C764D6F6488
:1009A00065000000704700BFFEE700BFFEE700BF24
:1009B000FEE700BFFEE770477047704770470000D2
:1009C0000CB50020019000907648006840F480301B
:1009D0007449086000BF7348006800F4003000905C
:1009E0000198401C0190009818B90198B0F5A04FEB
:1009F000F1D16C48006800F4003010B10120009083
:100A000001E0002000900098012846D16548403060
:100A1000006840F0805063494031086062480068D7
:100A200040F44040604908605E48083000685D4915
:100A3000083108600846006840F400400860084635
:100A4000006840F4A05008605848091F0860081F5B
:100A5000006840F08070091F086000BF51480068BE
:100A600000F000700028F9D040F20570504908608D
:100A70004C480830006820F003004A4908310860FB
:100A80000846006840F00200086000BF4548083092
:100A9000006800F00C000828F8D10CBD10B54548DE
:100AA000006840F47000434908603E48006840F028
:100AB00001003C49086000203A4908310860394883
:100AC00000683D490840374908603C48091D0860F6
:100AD000081F006820F48020091F086000203149A9
:100AE0000C310860FFF76CFF4FF00060314980392E
:100AF000086010BD70B500200022022300240221EE
:100B0000284D08352D6805F00C0020B1042806D0CA
:100B1000082834D107E02A4D2A4E356033E02A4DAB
:100B2000284E35602FE01F4D2D1D2D68C5F38054D4
:100B30001C4D2D1D2D6805F03F0154B1224DB5FB14
:100B4000F1F5184E361D3668C6F3881605FB06F219
:100B500009E01B4DB5FBF1F5124E361D3668C6F3A4
:100B6000881605FB06F20F4D2D1D2D68C5F30145B6
:100B70006D1C6B00B2FBF3F5124E356003E0104DB7
:100B8000104E356000BF00BF064D08352D68C5F317
:100B900003150E4E705D0B4D2D68C540094E356036
:100BA00070BD00000038024000700040085440074B
:100BB000003C024088ED00E0FFFFF6FE103000240C
:100BC0000024F4000800002000127A000C0000202D
:100BD0001CB50121202001F09FFB4FF4C060009064
:100BE00001208DF8040000208DF8060003208DF808
:100BF000050001208DF807006946044801F0EEF871
:100C00004FF4C061014801F065F91CBD00140240B9
:100C100070B50446002518E004F0800018B10120EA
:100C2000FD49086002E00020FB4908600120FA4904
:100C3000091F0860042000F0ADFE0020F749C1F84C
:100C4000A0026006040E681CC5B2082DE4DB01207A
:100C5000F1490860F149C1F8A002042000F09AFEB1
:100C60000020ED49091F086070BD10B5044600F072
:100C700062FB782000F00BFC00F09EFB402000F0AF
:100C800006FC00F099FB204600F001FC00F094FB0C
:100C900000F073FB10BD10B5044600F04CFB78204B
:100CA00000F0F5FB00F088FB08B100BFFEE7002074
:100CB00000F0EDFB00F080FB204600F0E8FB00F0C8
:100CC0007BFB00F05AFB10BD70B504460D4605F1E4
:100CD000B001C8B2FFF7DFFF102141EA1410FFF79F
:100CE000DAFF04F00F0141F00100FFF7D4FF70BDFF
:100CF00070B50646002415E004F1B001C8B2FFF754
:100D0000CAFF0120FFF7C7FF1020FFF7C4FF00252F
:100D100004E03046FFF7A9FF681CC5B2802DF8DB60
:100D2000601CC4B2082CE7DB70BD70B5002415E070
:100D300004F1B001C8B2FFF7AEFF0120FFF7ABFF2F
:100D40001020FFF7A8FF002504E00020FFF78DFF2B
:100D5000681CC5B2802DF8DB601CC4B2082CE7DB30
:100D600070BD10B54FF4FA7000F05CFEAE20FFF7D6
:100D700092FF0020FFF78FFF1020FFF78CFF40202D
:100D8000FFF789FF8120FFF786FFCF20FFF783FF62
:100D9000A120FFF780FFC820FFF77DFFA620FFF707
:100DA0007AFFA820FFF777FF3F20FFF774FFD320DB
:100DB000FFF771FF0020FFF76EFFD520FFF76BFFF5
:100DC0008020FFF768FFD920FFF765FFF120FFF7CC
:100DD00062FFDA20FFF75FFF1220FFF75CFFDB20E6
:100DE000FFF759FF4020FFF756FF2020FFF753FF82
:100DF0000220FFF750FF8D20FFF74DFF1420FFF773
:100E00004AFFA420FFF747FFA620FFF744FFAF20CB
:100E1000FFF741FF0020FFF76BFF00210846FFF7B7
:100E200053FF10BD2DE9F0470446884615464FF0A4
:100E300000090026002720E0E85D203800F0FF09C7
:100E40007E2C04DD002408F1010000F0FF0841467B
:100E50002046FFF739FF002609E009EB4901704AF7
:100E600002EB4101885DFFF700FF701CC6B2062E41
:100E7000F3DBA01DC4B2781CC7B2E85D0028DBD14B
:100E8000BDE8F0872DE9F04706460F46904600255D
:100E90000024A14631E018F809002038C5B2782EA8
:100EA00002DD0026781CC7B239463046FFF70CFF3A
:100EB000002407E004EB05115A4A505CFFF7D5FE09
:100EC000601CC4B2082CF5DB781CC1B23046FFF7B9
:100ED000FBFE002408E004EB05110831514A505C88
:100EE000FFF7C3FE601CC4B2082CF4DB06F1080057
:100EF000C6B209F1010000F0FF0918F80900002846
:100F0000C9D1BDE8F0872DE9F04180460E4617466D
:100F100000247D0131464046FFF7D6FE00BF06E0C3
:100F20004149485DFFF7A1FE6D1C601CC4B2102C46
:100F3000F6DB701CC1B24046FFF7C6FE002406E097
:100F40003949485DFFF791FE6D1C601CC4B2102C3E
:100F5000F6DBBDE8F0812DE9F05F06460F469046CE
:100F60001C46DDF828A04FF0000BE11704EB51718F
:100F7000C910A4EBC10131B92046E11704EB51714E
:100F8000C1F3C70506E02046E11704EB5171C91013
:100F9000491CCDB23D4614E029463046FFF794FE89
:100FA000B1460AE059460BF1010B1AF80100FFF7B0
:100FB0005CFE09F1010000F0FF09C145F2DB681C8D
:100FC000C5B2A542E8DBBDE8F09F2DE9F047064633
:100FD0000F46904600250024A14608F11000C5B236
:100FE000782E02DD0026781CC7B239463046FFF75E
:100FF0006BFE002407E004EB05110A4A505CFFF782
:1010000034FE601CC4B2082CF5DB781CC1B230463B
:10101000FFF75AFE002412E0A482404200804042C2
:1010200040590008685B00084055000804EB0511B2
:101030000831A54A505CFFF718FE601CC4B2082CAA
:10104000F4DB06F10800C6B209F1010000F0FF0967
:10105000BDE8F08770B52DED048BB0EE408AF0EE60
:10106000608AB0EE419A0546BDEEC80A10EE104AFD
:1010700096A200210846FFF705FF002C06DA64421D
:1010800094A200212820FFF7FDFE04E092A2002197
:101090002820FFF7F7FE642C22DB642094FBF0F09D
:1010A00006B2324600213020FFF78FFF0A2094FB62
:1010B000F0F00A2190FBF1F201FB120006B2324679
:1010C00000213820FFF781FF0A2094FBF0F100FB9C
:1010D000114006B2324600214020FFF776FF18E0AB
:1010E0000A2094FBF0F006B2324600213020FFF7D0
:1010F0006CFF0A2094FBF0F100FB114006B232466F
:1011000000213820FFF761FF73A200214020FFF784
:10111000B9FE72A202210020FFF7B4FEBDEEE80A7C
:1011200010EE104A002C06DA64426AA20221302036
:10113000FFF7A8FE04E068A202213020FFF7A2FE1C
:10114000642C22DB642094FBF0F006B232460221CC
:101150003820FFF73AFF0A2094FBF0F00A2190FBB9
:10116000F1F201FB120006B2324602214020FFF7E5
:101170002CFF0A2094FBF0F100FB114006B232462E
:1011800002214820FFF721FF18E00A2094FBF0F02D
:1011900006B2324602213820FFF717FF0A2094FBDF
:1011A000F0F100FB114006B2324602214020FFF769
:1011B0000CFF49A202214820FFF764FE49A2042146
:1011C0000020FFF75FFEBDEEC90A10EE104A002CAA
:1011D00006DA64423FA204212020FFF753FE04E018
:1011E0003DA204212020FFF74DFE642C22DB642069
:1011F00094FBF0F006B2324604212820FFF7E5FE0A
:101200000A2094FBF0F00A2190FBF1F201FB12009E
:1012100006B2324604213020FFF7D7FE0A2094FBA5
:10122000F0F100FB114006B2324604213820FFF7EE
:10123000CCFE18E00A2094FBF0F006B232460421FE
:101240002820FFF7C2FE0A2094FBF0F100FB1140BA
:1012500006B2324604213020FFF7B7FE1EA2042159
:101260003820FFF70FFE21A206210020FFF70AFE1B
:101270002C46002C06DA644216A206213820FFF71D
:1012800001FE04E014A206213820FFF7FBFD0A202E
:1012900094FBF0F006B2324606214020FFF795FE9F
:1012A0000A2094FBF0F100FB114006B23246062101
:1012B0004820FFF78AFE0FA206215020FFF7E2FD2B
:1012C000BDEC048B70BD0000685B0008726F6C6C35
:1012D0003D0000002D0000002000000070697463D4
:1012E000683D00007961773D0000000074656D7015
:1012F00065723D005E4300001CB50121022001F033
:101300000BF84FF44070009001208DF8040000208D
:101310008DF8060003208DF8050001208DF80700E8
:101320006946894800F05AFD0120884908608849CB
:10133000C1F8A4021CBD10B58348006820F4402009
:10134000814908600846006840F480200860012058
:101350007E49091D08607E49C1F8A002042000F002
:1013600019FB00207949091D0860042000F012FBD8
:1013700000207749C1F8A00210BD10B5724800687E
:1013800020F44020704908600846006840F480203E
:10139000086000206D4908606D49C1F8A40204206E
:1013A00000F0F8FA0120694908606949C1F8A4020F
:1013B000042000F0EFFA10BD10B500246248006868
:1013C00020F4402060490860084600680860012059
:1013D0005E49091D086000F0DDFA01205C49C1F892
:1013E000A00200F0D7FA07E0601CC4B2FA2C03DDBB
:1013F000FFF7C3FF012010BD54487C380068002867
:10140000F2D15249086000BFF5E710B500204F49FE
:1014100008604D48006820F440204B4908600846A9
:10142000006840F48020086000204949C1F8A40207
:10143000022000F0AFFA012044490860022000F0C9
:10144000A9FA00204249C1F8A00210BD10B5002041
:101450003E4908603C48006820F440203A49086052
:101460000846006840F48020086001203849C1F82F
:10147000A402022000F08EFA012034490860022004
:1014800000F088FA00203249C1F8A00210BD70B502
:1014900004462D48006820F440202B490860084687
:1014A000006840F48020086000202849086000257A
:1014B00017E0E0092549091D08606006040E0220B6
:1014C00000F068FA01202249C1F8A002022000F0D1
:1014D00061FA00201D490860022000F05BFA681CD8
:1014E000C5B2082DE5DB70BD70B505460024164871
:1014F000006820F44020144908600846006808602D
:10150000002616E0002011490860022000F042FA8F
:1015100001200F49C1F8A0026006040E0B487C3878
:10152000006808B1601CC4B2012000F033FA701CDE
:10153000C6B2082EE6DB15B9FFF788FF01E0FFF71A
:1015400064FF204670BD000000040240A0824042BB
:101550000080404230B58BB004460D4601210802A0
:1015600000F023FF0121202000F0D6FE09221146C1
:10157000934800F0BEFC4FF40070099002208DF8F3
:10158000280003208DF8290000208DF82A00012072
:101590008DF82B0009A98A4800F020FCA8B2ADF80C
:1015A00018000020ADF81A000794ADF8200006A935
:1015B000844801F0DCFA6020ADF804000120ADF8A9
:1015C00006000220ADF8100001A97E4801F064FB7E
:1015D00008217C4801F0EDFC01217A4801F032FB42
:1015E0000121784801F04CFB0BB030BD30B58BB019
:1015F00004460D460121802000F0D7FE0121202065
:1016000000F08AFE092208216D4800F072FC4FF4B8
:101610008070099002208DF8280003208DF82900A1
:1016200000208DF82A0001208DF82B0009A96448BC
:1016300000F0D4FBA8B2ADF818000020ADF81A00F5
:101640000794ADF8200006A95F4801F090FA6020E9
:10165000ADF804000120ADF806000220ADF810003E
:1016600001A9594801F018FB0821574801F0A1FCD5
:101670000121554801F0E6FA0121534801F000FB31
:101680000BB030BD30B58BB004460D460121084685
:1016900000F09CFE0121022000F03EFE0222072104
:1016A0004A4800F026FC8020099002208DF828008E
:1016B00003208DF8290000208DF82A0001208DF8E4
:1016C0002B0009A9414800F089FB0121042000F00A
:1016D0006CFEA8B2ADF818000020ADF81A0007940F
:1016E000ADF8200006A93A4801F041FA6020ADF8B3
:1016F00004000120ADF806000220ADF8100001A999
:10170000334801F002FB0821314801F05BFC012164
:101710002F4801F097FA01212D4801F0B1FA0BB0E2
:1017200030BD30B58BB004460D460121084600F0AF
:101730004DFE0121022000F0EFFD02220621234888
:1017400000F0D7FB4020099002208DF828000320EC
:101750008DF8290000208DF82A0001208DF82B003B
:1017600009A91A4800F03AFB0121042000F01DFEEF
:10177000A8B2ADF818000020ADF81A000794ADF833
:10178000200006A9124801F0F2F96020ADF804002B
:101790000120ADF806000220ADF8100001A90C48A8
:1017A00001F07AFA08210A4801F003FC01210848F7
:1017B00001F048FA0121064801F062FA0BB030BD91
:1017C0000014024000200040001C004000040240C1
:1017D000000800401CB50121482000F09DFD552067
:1017E000009000208DF8040001208DF807000320F0
:1017F0008DF805006946554800F0F0FA4FF42A408C
:10180000009001208DF8040003208DF80500694642
:101810004F4800F0E3FA1CBD7FB500254D4B0FCBC0
:101820008DE80F004FF42A41494800F053FB002493
:101830002FE03DF8240081B2454800F04DFB012126
:10184000424800F02DFB10B9A000C51C23E0042184
:101850003E4800F025FB10B9A000851C1BE01021BC
:101860003A4800F01DFB10B9A000451C13E04021D0
:10187000364800F015FB08B9A5000CE0FF253DF83F
:10188000240081B2324800F025FB012000F0CAF8A4
:10189000641C042CCDD300BF284604B070BD2DE9D4
:1018A000F04106460025002700BFFFF7B5FF2A4993
:1018B000085C2A28F9D003E020207055681CC5B2C6
:1018C000052DF9DB00253BE0FFF7A6FFC4B20A2097
:1018D00000F0A8F8FFF7A0FFA04224D1FF2C22D0EF
:1018E000012F20D01C48005D2A2800D12AE01A4888
:1018F000005D442803D119A60127BDE8F0811648F0
:10190000005D412803D12D20705501270BE01248BE
:10191000005D232803D12E207055012703E00E48D7
:10192000005D70550127FF2C0AD1012F08D1FFF768
:1019300073FFA04204D1012F02D10027681CC5B259
:10194000052DC1DB00BF00BFD7E70000000C02403F
:1019500000180240586100081C0000203000000000
:1019600010B504466FF0040000F094F9E11704EBA1
:101970005171C1F3C701394A11701046007800EB6C
:101980004001C1EBC0104FF6FF7101EAC0003449BD
:10199000088010BD0146314A12784A434FF0E023D7
:1019A0005A6100229A611A46126942F001021A61D4
:1019B00000BF4FF0E022106900F001021AB100F4FC
:1019C0008032002AF5D04FF0E022126922F00102A5
:1019D0004FF0E0231A6100229A6170470146204AC5
:1019E00012884A434FF0E0235A6100229A611A4656
:1019F000126942F001021A6100BF4FF0E022106943
:101A000000F001021AB100F48032002AF5D04FF044
:101A1000E022126922F001024FF0E0231A61002255
:101A20009A61704770B504464FF4077094FBF0F06C
:101A3000C6B24FF4077094FBF0F100FB114085B281
:101A400005E04FF40770FFF7C9FF701EC6B2002E05
:101A5000F7D115B12846FFF7C1FF70BD2E00002059
:101A600030000020014600BF704700BF4C4A12887A
:101A700002F04002002AF9D0C2B2494B9A80704766
:101A800010B588B004460121084600F045FC01214C
:101A9000102000F09BFC07220921424800F029FA9F
:101AA00007220A213F4800F024FA4FF4C060069054
:101AB00002208DF81C008DF81D0000208DF81E00FE
:101AC00001208DF81F0006A9364800F087F902941E
:101AD0000020ADF80C00ADF80E00ADF81000ADF828
:101AE00014000C20ADF8120002A92D4800F0CFFD23
:101AF00001212B4800F053FE012240F225512848D5
:101B000000F003FF25208DF8040003208DF8050068
:101B10008DF8060001208DF8070001A800F06DF88F
:101B200008B010BD10B540F225511D4800F028FF47
:101B300010B31B4800F062FEC4B21B48008800F4DA
:101B40000040C8B91848008800F4804060B10A2CF1
:101B500003D000201449088020E01348008840F496
:101B600000401149088019E00D2C06D10E4800886C
:101B700040F480400C49088010E00B480088C0F316
:101B80000D000A490C5408480088401C064908808A
:101B900008460088C72801DD0020088010BD00002D
:101BA0000010014000000240380000204C000020DE
:101BB0000948804709480047FEE7FEE7FEE7FEE7E1
:101BC000FEE7FEE7FEE7FEE7FEE7FEE7044805491D
:101BD000054A064B704700009D0A0008890100086D
:101BE0007801002078070020780300207803002087
:101BF00032490143324A1160704770B50021002319
:101C00000F22C4781CB32E4C246804F4E064C4F59D
:101C1000E064C4F30721C1F10404E3B20A4144784B
:101C20009C40E1B28478144021430C07210E254CDE
:101C300005786155047804F01F050124AC4005784F
:101C40006D11AD0005F1E025C5F8004109E004780B
:101C500004F01F050124AC401B4D0678761145F8B1
:101C6000264070BD194A0A400243154B1B1F1A60DB
:101C7000704739B1124A121D12680243104B1B1DE6
:101C80001A6006E00E4A121D126882430C4B1B1D9F
:101C90001A607047042808D14FF0E021096941F02B
:101CA00004014FF0E022116107E04FF0E0210969E3
:101CB00021F004014FF0E022116170470000FA05A5
:101CC0000CED00E000E400E080E100E080FFFF1F99
:101CD00010B504469848844208D10121084600F016
:101CE00086FB0021012000F082FB76E093488442CD
:101CF00008D10121022000F07AFB0021022000F02F
:101D000076FB6AE08E48844208D10121042000F06D
:101D10006EFB0021042000F06AFB5EE089488442EB
:101D200008D10121082000F062FB0021082000F00A
:101D30005EFB52E08448844208D10121102000F06B
:101D400056FB0021102000F052FB46E07F48844201
:101D500008D10121202000F04AFB0021202000F0C2
:101D600046FB3AE07A48844208D10121402000F045
:101D70003EFB0021402000F03AFB2EE075488442F3
:101D800008D10121802000F032FB0021802000F0EA
:101D90002EFB22E07048844208D10121801500F01A
:101DA00026FB0021A01500F022FB16E06B488442C0
:101DB00008D10121401500F01AFB0021601500F048
:101DC00016FB0AE06648844207D10121001500F0A5
:101DD0000EFB0021201500F00AFB10BDF0B50A46ED
:101DE00000210023002400BF3DE0012505FA01F396
:101DF000156805EA03049C4234D105684F000326A8
:101E0000BE40B543056015794E00B54006683543C0
:101E100005601579012D02D01579022D16D185683E
:101E20004F000326BE40B543856055794E00B5404E
:101E3000866835438560456801268E40B543456018
:101E4000456896798E40B6B235434560C5684F0007
:101E50000326BE40B543C560D5794E00B540C6687F
:101E60003543C560491C1029BFD3F0BD4FF6FF7143
:101E700001600021017141718171C171704708B524
:101E80004FF480320092009A0A430092009AC26195
:101E9000C161009AC261C2690092C269009208BD24
:101EA0000246002013690B400BB1012000E0002026
:101EB00070470146086980B27047024600205369A6
:101EC0000B400BB1012000E000207047014648693B
:101ED00080B2704701837047418370470AB1018324
:101EE00000E0418370474161704742694A40426166
:101EF0007047F0B5002300244D07ED0E02FA05F3FC
:101F0000CE1000F1200555F826504E07F70E0F268B
:101F1000BE40B543CF1000F1200646F82750CE1042
:101F200000F1200555F8265045EA0304CE1000F1D3
:101F3000200545F82640F0BD0000024000040240A4
:101F400000080240000C0240001002400014024051
:101F500000180240001C0240002002400024024001
:101F600000280240F948006840F00100F749086085
:101F70000020F64908310860F4480068F449084038
:101F8000F2490860F348091D0860F348EF498431BD
:101F90000860F0481038091D0860EC48006820F41B
:101FA0008020EA4908600020E8490C310860E749D0
:101FB0008C31086070470021E44A921C1170114670
:101FC0000870704710B501460022002300204A1116
:101FD000012A02D1DD4C236808E0022A03D1DB4C40
:101FE0007034236802E0D94C7434236801F01F0276
:101FF000012494401C400CB1012000E0002010BDE1
:1020000038B5002000900024002500BF3120FFF7E4
:10201000D9FF05460098401C00900098B0F5A04FED
:1020200001D0002DF2D03120FFF7CCFF08B1012400
:1020300000E00024204638BD01460020C34A106855
:1020400020F0F80040EAC10010607047C349086002
:1020500070470021BD4A703211701170012802D002
:1020600004280AD104E00121B84A7032117005E059
:102070000521B64A7032117000E000BF00BF704702
:10208000B7490860704770B5049C41EA8215012683
:10209000C6EB530645EA0645054345EA0465AB4EE3
:1020A000361D356070BDAD4908667047820142EA51
:1020B0000172A64B84331A607047A849886670473E
:1020C00010B5830143EA016343EA02739F4C8834ED
:1020D000236010BDA14908677047A049C8647047D4
:1020E00002460020994B0833186820F0EC6042EA61
:1020F00001031843954B08331860704702460020CF
:10210000924B0833186820F0784042EA01031843E4
:102110008E4B083318607047014600208B4A083206
:10212000106820F0030008431060704787480830AB
:10213000006800F00C00704701460020834A083216
:10214000106820F0F000084310607047014600203E
:102150007E4A0832106820F4E0500843106070474F
:1021600001460020794A0832106820F4604040EAB5
:10217000C10010607047F0B5002100220024022544
:1021800000260223714F08373F6807F00C0121B188
:10219000042905D0082937D105E0724F076036E0E1
:1021A000714F076033E0694F3F1D3F68C7F38056AA
:1021B000664F3F1D3F6807F03F036EB16A4FB7FBA4
:1021C000F3F7DFF888C10CF1040CDCF800C0CCF3A5
:1021D000881C07FB0CF40CE0624FB7FBF3F7DFF849
:1021E0006CC10CF1040CDCF800C0CCF3881C07FBBC
:1021F0000CF4564F3F1D3F68C7F301477F1C7D001D
:10220000B4FBF5F7076002E0564F076000BF00BF60
:102210004E4F08373F6807F0F0010909534F7A5CC9
:102220000768D7404760494F08373F6807F4E051D7
:10223000890A4E4F7A5C4768D7408760434F08371A
:102240003F6807F46041490B484F7A5C4768D740C4
:10225000C760F0BD002100F44072B2F5407F0AD1A2
:102260003A4A0832116821F4F811414A02401143F8
:10227000364A08321160354A70321268C0F30B03D7
:102280001A43324B70331A6070473549443908603D
:1022900070473349403908607047364908607047D5
:1022A00001460020294A8C32106820F01F004A1E87
:1022B0001043264A8C321060704701460020234AA2
:1022C0008C32106820F4F8504A1E40EA02201F4A5F
:1022D0008C3210607047014600201C4A8C32106816
:1022E00020F4401008431060704701460020174A50
:1022F0008C32106820F4400008431060704701469B
:102300000020124A8C32106820F4403008431060DC
:10231000704719490860704739B10C4A3032126869
:1023200002430A4B30331A6006E0084A3032126822
:102330008243064B30331A607047F9B1034A343296
:1023400012680243014B34331A601CE0003802402B
:10235000FFFFF6EA10300024003000200000474262
:10236000800E47420024F40000127A003A00002058
:10237000FFFCFF0F5C014742E01147428F4A1268A1
:1023800082438E4B1A60704739B18C4A121D126815
:1023900002438A4B1B1D1A6006E0884A121D126810
:1023A0008243864B1B1D1A60704739B1834A0C3239
:1023B00012680243814B0C331A6006E07F4A0C32EC
:1023C000126882437D4B0C331A60704739B17B4AE7
:1023D000103212680243794B10331A6006E0774AD4
:1023E000103212688243754B10331A60704739B14E
:1023F000724A243A12680243704B243B1A6006E08A
:102400006E4A243A126882436C4B243B1A60704730
:1024100039B16A4A203A12680243684B203B1A607D
:1024200006E0664A203A12688243644B203B1A60F9
:10243000704739B1614A1C3A126802435F4B1C3B3A
:102440001A6006E05D4A1C3A126882435B4B1C3BF3
:102450001A60704739B1594A143A12680243574B0F
:10246000143B1A6006E0554A143A12688243534BF3
:10247000143B1A60704739B1504A103A126802434F
:102480004E4B103B1A6006E04C4A103A12688243E9
:102490004A4B103B1A60704739B1484A1C321268E7
:1024A0000243464B1C331A6006E0444A1C32126851
:1024B0008243424B1C331A60704739B13F4A203285
:1024C000126802433D4B20331A6006E03B4A20323B
:1024D00012688243394B20331A60704739B1374A4A
:1024E000243212680243354B24331A6006E0334A23
:1024F000243212688243314B24331A60704739B159
:102500002E4A2C32126802432C4B2C331A6006E000
:102510002A4A2C3212688243284B2C331A607047A7
:1025200039B1264A303212680243244B30331A60E4
:1025300006E0224A303212688243204B30331A6060
:102540007047012808D11D493C31096841F0080154
:102550001A4A3C32116007E018493C31096821F001
:102560000801164A3C321160704739B1134A273AC4
:1025700012780243114B273B1A7006E00F4A273AA4
:10258000127882430D4B273B1A7070470B4840303E
:10259000006840F08070094940310860704701468A
:1025A0000020064A283A12680A400AB1012000E0D9
:1025B00000207047014926390870704734380240BE
:1025C00010B50446FA48844208D101211020FFF7D3
:1025D00052FF00211020FFF74EFF57E0F5488442DC
:1025E00009D101214804FFF735FF00214FF40030E5
:1025F000FFF730FF4AE0F048844209D10121880406
:10260000FFF728FF00214FF48020FFF723FF3DE074
:10261000EA48844209D10121C804FFF71BFF0021C9
:102620004FF40020FFF716FF30E0E548844209D15F
:1026300001210805FFF70EFF00214FF48010FFF77E
:1026400009FF23E0DF48844208D101212020FFF761
:1026500012FF00212020FFF70EFF17E0DA48844226
:1026600009D101218807FFF7F5FE00214FF08040D6
:10267000FFF7F0FE0AE0D548844207D1012140056A
:10268000FFF7E8FE00216005FFF7E4FE10BD2DE92D
:10269000FF4705460E460024A14600BFA046B0896C
:1026A00000B100BF2C8A24F44054F08804432C82EB
:1026B000AC8941F20C608443B08831890843718948
:1026C00008430443AC81AC8A24F44074B0890443C9
:1026D000AC826846FFF74FFDB548854202D0B94845
:1026E000854202D1DDF80C9001E0DDF80890A88960
:1026F00000F4004040B109EBC90000EB091031685B
:102700004900B0FBF1F707E009EBC90000EB091045
:1027100031688900B0FBF1F76420B7FBF0F00401E9
:102720002009642101FB1078A88900F4004040B121
:10273000322000EBC800B0FBF1F000F007000443CA
:1027400008E0322000EB08106421B0FBF1F000F04B
:102750000F0004432C81BDE8FF874FF41651016040
:1027600000218180C18001810C2141810021818172
:10277000704710B502460020108A20F470600B8864
:102780004C8823438C882343CC88234318431082EE
:1027900010BD0021018041808180C180704721B13E
:1027A000828942F40052828104E082894DF6FF73EF
:1027B0001A4082817047028B02F47F420283028BAF
:1027C0000A430283704721B1828942F40042828128
:1027D00003E08289C2F30E028281704721B1828AAE
:1027E00042F40062828204E0828A4FF2FF731A4050
:1027F00082827047C1F30802828070470146888850
:10280000C0F308007047028A4FF6F0731A40028244
:10281000028A0A430282704721B1828942F0020291
:10282000828104E082894FF6FD731A4082817047ED
:1028300082894FF2FF731A40828182890A43828122
:102840007047028A4FF6DF731A400282028A0A43F7
:102850000282704721B1028A42F48042028204E07F
:10286000028A4BF6FF731A4002827047818941F059
:1028700001018181704721B1828A42F0080282827F
:1028800004E0828A4FF6F7731A4082827047028B07
:10289000D2B20283028B42EA01220283704721B145
:1028A000828A42F02002828204E0828A4FF6DF733D
:1028B0001A408282704721B1828A42F010028282DD
:1028C00004E0828A4FF6EF731A4082827047828A50
:1028D0004FF6FB731A408282828A0A4382827047D3
:1028E00021B1828A42F00202828204E0828A4FF69B
:1028F000FD731A40828270471AB1838A0B43838228
:1029000002E0838A8B4383827047F0B5034600243C
:1029100000260025002040F66A17B94200D100BF0A
:102920001846C1F3421401F01F06012707FA06F505
:10293000012C01D10C3004E0022C01D1103000E058
:1029400014301AB107682F43076002E00768AF43ED
:102950000760F0BD02460020B1F5007F00D100BF46
:1029600013880B400BB1012000E00020704701F4F8
:102970000072B2F5007F00D100BFCA4302807047E9
:1029800070B50246002400230025002040F66A1698
:10299000B14200D100BFC1F3421501F01F0301266F
:1029A00006FA03F3012D13D19689334017E0000096
:1029B000001001400044004000480040004C00402E
:1029C000005000400014014000780040007C0040AE
:1029D000022D02D1168A334001E0968A33400C1250
:1029E000012606FA04F41688344013B10CB1012014
:1029F00000E0002070BD10B50022002340F66A14EC
:102A0000A14200D100BF0A1201249440A3B2DC43CA
:102A1000048010BD10B50446FE48844208D101214F
:102A20000846FFF728FD00210120FFF724FD9DE067
:102A3000B4F1804F08D101210846FFF70BFD0021BA
:102A40000120FFF707FD91E0F348844208D10121FE
:102A50000220FFF7FFFC00210220FFF7FBFC85E0CE
:102A6000EE48844208D101210420FFF7F3FC002145
:102A70000420FFF7EFFC79E0E948844208D1012106
:102A80000820FFF7E7FC00210820FFF7E3FC6DE0DA
:102A9000E448844208D101211020FFF7DBFC00212B
:102AA0001020FFF7D7FC61E0DF48844208D1012104
:102AB0002020FFF7CFFC00212020FFF7CBFC55E0C2
:102AC000DA48844208D101210220FFF7D4FC00211A
:102AD0000220FFF7D0FC49E0D548844209D101210A
:102AE0000804FFF7C8FC00214FF48030FFF7C3FC57
:102AF0003CE0D048844209D101214804FFF7BBFCE7
:102B000000214FF40030FFF7B6FC2FE0CA488442A2
:102B100009D101218804FFF7AEFC00214FF4802089
:102B2000FFF7A9FC22E0C548844208D101214020DA
:102B3000FFF790FC00214020FFF78CFC16E0C04816
:102B4000844208D101218020FFF784FC00218020ED
:102B5000FFF780FC0AE0BB48844207D101218015C1
:102B6000FFF778FC0021A015FFF774FC10BD0022D0
:102B70000288A84B98420ED0AC4B98420BD0B0F1D3
:102B8000804F08D0A44B984205D0A44B984202D065
:102B9000A34B984204D14FF68F731A404B881A43C7
:102BA000A04B984207D0A04B984204D04FF6FF4369
:102BB0001A400B891A4302804B68C3620B88038555
:102BC000944B984202D0994B984201D18B7A03865C
:102BD0000123838270474FF0FF3141600021018063
:102BE00001814180817270470185828270470A4667
:102BF000002101884FF68F731940114301807047FF
:102C000041627047C16270470146486A7047014699
:102C1000088D704721B1028842F00202028004E070
:102C200002884FF6FD731A400280704721B1028876
:102C300042F00402028004E002884FF6FB731A405F
:102C40000280704721B1028842F08002028004E0D5
:102C500002884FF67F731A400280704702884FF651
:102C6000F7731A40028002880A4302807047028884
:102C70004FF6FF431A40028002880A4302807047E1
:102C800021B1028842F00102028004E002884FF67E
:102C9000FE731A400280704770B5002400220023A2
:102CA000058C4FF6FE7635400584028C8388048BB4
:102CB0004FF68F752C40B51E2C400D882C43751E89
:102CC0002A408D892A434D882A43524DA84202D07A
:102CD000564DA84213D14FF6F7752A40CD892A43A5
:102CE0004FF6FB752A408D882A434FF6FF652B402F
:102CF0004FF6FF552B400D8A2B434D8A2B43838083
:102D000004838D684563028470BD70B50024002281
:102D10000023058C4FF6EF7635400584028C8388BE
:102D2000048B48F6FF752C404FF6FF452C400D886C
:102D30004FF6FF7606EA05252C434FF6DF752A404D
:102D40008D8906EA05152A434D8806EA05152A43AA
:102D5000304DA84202D0354DA8421DD14FF67F75A7
:102D60002A40CD894FF6FF7606EA05152A434FF62D
:102D7000BF752A408D8806EA05152A434FF6FF35B0
:102D80002B404FF2FF752B400D8A06EA85052B4339
:102D90004D8A06EA85052B43838004838D6885630D
:102DA000028470BD70B5002400220023058C4FF60C
:102DB000FF6635400584028C8388848B4FF68F75BF
:102DC0002C404FF6FC752C400D882C434FF6FF55D8
:102DD0002A408D894FF6FF7606EA05252A434D885D
:102DE00006EA05252A430B4DA84202D00F4DA84202
:102DF00038D14FF2FF752A40CD894FF6FF7606EAAB
:102E000005252A434FF6FF352A408D8806EA052519
:102E10002A4319E00000014000040040000800407F
:102E2000000C00400010004000140040000401406D
:102E300000400140004401400048014000180040AB
:102E4000001C0040002000404EF6FF752B404DF660
:102E5000FF752B400D8A06EA05152B434D8A06EABD
:102E600005152B43838084838D68C563028470BD00
:102E700070B5002200230024058C4EF6FF76354005
:102E80000584038C8488828B48F6FF752A404FF6B0
:102E9000FF452A400D884FF6FF7606EA05252A43AE
:102EA0004DF6FF752B408D8906EA05352B434D887D
:102EB00006EA05352B43FE4DA84202D0FD4DA8423F
:102EC00008D14BF6FF752C400D8A4FF6FF7606EAC7
:102ED00085152C43848082838D680564038470BDCE
:102EE000002101804180818081608181C1810182D6
:102EF0004182704770B50346002000241846183000
:102F000001258D40ACB21D8CA5431D8409B1082953
:102F10000AD100EB610005684FF68F7635400560F9
:102F20000568154305600FE00D1FC5F34E052844E5
:102F3000056848F6FF763540056005684FF6FF7670
:102F400006EA02263543056070BD41637047816320
:102F50007047C1637047016470470A460021018BC6
:102F60004FF68F7319401143018370470A460021C1
:102F7000018B48F6FF7319404FF6FF7303EA0223F3
:102F80001943018370470A460021818B4FF68F73E6
:102F900019401143818370470A460021818B48F60E
:102FA000FF7319404FF6FF7303EA0223194381832D
:102FB00070470A460021018B4FF6F7731940114301
:102FC000018370470A460021018B4FF2FF731940BD
:102FD0004FF6FF7303EA02231943018370470A4641
:102FE0000021818B4FF6F77319401143818370479D
:102FF0000A460021818B4FF2FF7319404FF6FF7391
:1030000003EA02231943818370470A460021018B9A
:103010004FF6FB7319401143018370470A460021A4
:10302000018B4FF6FF3319404FF6FF7303EA02237B
:103030001943018370470A460021818B4FF6FB73C9
:1030400019401143818370470A460021818B4FF656
:10305000FF3319404FF6FF7303EA022319438183BC
:1030600070470A460021018B4FF67F7319401143C8
:10307000018370470A460021018BC1F30E014FF610
:10308000FF7303EA02231943018370470A460021B4
:10309000818B4FF67F7319401143818370470A4635
:1030A0000021818BC1F30E014FF6FF7303EA022367
:1030B0001943818370470A460021018C4FF6FD7346
:1030C00019401143018470470A460021018C4FF6D4
:1030D000F77319401143018470470A460021018C9F
:1030E0004FF6DF7319404FF6FF7303EA02131943DB
:1030F000018470470A460021018C4FF67F73194006
:103100004FF6FF7303EA02131943018470470A461E
:103110000021018C4FF6FF5319404FF6FF7303EA6D
:1031200002231943018470470A460021018C4FF2A3
:10313000FF7319404FF6FF7303EA0223194301841A
:1031400070470A460021018C4DF6FF7319404FF677
:10315000FF7303EA023319430184704730B500233B
:1031600001248C40A3B2048C9C430484048C02FA96
:1031700001F5ADB22C43048430BD30B500230424E6
:103180008C40A3B2048C9C430484048C02FA01F5A5
:10319000ADB22C43048430BD828B4FF2FF331A4012
:1031A0008283828B4FF6FF7303EA01231A438283E3
:1031B0007047F0B50C461546002100220026078C0A
:1031C0004EF6FF7C07EA0C070784818B028C4FF6D2
:1031D000FF7707EA043640F6FF4739404FF6FF779E
:1031E00007EA052739434FF6FF7707EA03373943E4
:1031F00045F6FF773A4046F480573A43818302848C
:10320000F0BD828B4FF6F3731A408283828B0A43A0
:1032100082837047F0B50C46154600210022002637
:10322000078C4FF6FF6C07EA0C070784818B028C32
:103230004FF6FF7707EA04264FF60C7739404FF632
:10324000FF7707EA03172F4339434FF2FF573A40FE
:1032500046F480773A4381830284F0BD028B4FF2BB
:10326000FF331A400283028B4FF6FF7303EA0123F8
:103270001A4302837047F0B50C4615460021002220
:103280000026078C4FF6EF7C07EA0C070784018BBA
:10329000028C4FF6FF7707EA041640F6FF473940E5
:1032A0004FF6FF7707EA033739434FF6FF7703E01E
:1032B000000001400004014007EA052739434FF6AA
:1032C0005F773A4046F010073A4301830284F0BD2D
:1032D000028B4FF6F3731A400283028B0A43028378
:1032E0007047F0B50C46154600210022068C4FF6BB
:1032F000FE773E400684018B028C4FF60C763140FF
:103300007E1C06EA03162E4331434FF6F576324013
:1033100044F00106324301830284F0BD70B50546D6
:103320000C46208850B92389A28861882846FFF777
:10333000D8FFE1882846FFF7CBFF25E02088042846
:103340000AD12389A28861882846FFF794FFE18883
:103350002846FFF783FF17E0208808280AD1238931
:10336000A28861882846FFF755FFE1882846FFF7C5
:1033700048FF09E02389A28861882846FFF719FFE2
:10338000E1882846FFF708FF70BD002101804180D9
:10339000012181800021C180018170472DE9F04128
:1033A00005460C4600260127608808B9022600E081
:1033B0000026A088012801D1022700E001272088EB
:1033C000A0B92389A28861882846FFF78AFFE1888F
:1033D0002846FFF77DFF23893A4631462846FFF706
:1033E0004AFFE1882846FFF739FF13E02389A288C6
:1033F00061882846FFF73FFFE1882846FFF72EFF48
:1034000023893A4631462846FFF76BFFE188284674
:10341000FFF75EFFBDE8F0810146486B704701464B
:10342000886B70470146C86B70470146086C70474F
:103430000A884B881A438B881A43CB881A430B8916
:103440001A434B891A438B891A43A0F844207047CA
:103450000021018041808180C18001814181818181
:10346000704731B1B0F8442042F40042A0F8442043
:1034700005E0B0F84420C2F30E02A0F844207047E3
:1034800021B1828842F00402828004E082884FF6F3
:10349000FB731A408280704721B1828842F001029A
:1034A000828004E082884FF6FE731A408280704763
:1034B0001AB183890B43838102E083898B43838123
:1034C00070478182704702460020138A0B400BB17F
:1034D000012000E000207047CA430282704730B5E7
:1034E0000246002000230024158A05EA010395897D
:1034F00005EA010413B10CB1012000E0002030BD49
:10350000CA430282704741EA0203A0F8483070477C
:103510001AB183890B43838102E083898B438381C2
:10352000704721B1828842F00802828004E08288DC
:103530004FF6F7731A408280704701894FF6F87290
:103540001140018170470A46002101894FF68F73AF
:10355000194011430181704730B504460D46294694
:103560002046FFF7F0FF208940F00700208130BDA2
:103570002DE9F04104460D4616461F46602D06D142
:103580003B46012231462046FFF775FE05E03B46EB
:10359000012231462046FFF7A4FE29462046FFF7C8
:1035A000D2FF208940F007002081BDE8F08130B5CE
:1035B0000C4600210189C9B24FF6FF7505EA0325C3
:1035C000154325432943018130BD2DE9F0410546CE
:1035D0000E4617469846002443463A46314628464A
:1035E000FFF7E5FF2C894FF6F870044044F007041C
:1035F0004FF68F70044044F070042C81BDE8F081D8
:10360000F0B504460D4616461F463B46324629464F
:103610002046FFF7CCFF208940F480402081F0BD98
:1036200082884FF68F731A40828082880A43828094
:10363000704702894FF6F8731A40028102890A43E3
:103640000281704702894FF67F731A400281028916
:103650000A4302817047F0B50C4615461E4600210C
:10366000002200230189028B038C4FF6F877394042
:1036700021434FF6FC473A4040F201173A434FF6D8
:10368000DD773B404FF6FF7707EA06172F433B43B2
:10369000018102830384F0BD21B1828842F080025F
:1036A000828004E082884FF67F731A4082807047E0
:1036B000A0F85010704770470FB4044910B503AA22
:1036C000029800F0EFF810BC5DF814FB3400002005
:1036D0002DE9F0410E460446002020622046E168B4
:1036E000884730B3252805D0D4E901219047206AC6
:1036F000401CF2E7E168204600278847050018D003
:10370000A5F14100192802D820354FF40067324650
:10371000294620462760FCF771FD40B1012804D0FE
:10372000F61D26F007060836D8E7361DD6E72846E8
:10373000DAE7206ABDE8F0812DE9F0410646002471
:1037400010687529314616A510D0AFF30080002807
:1037500002DA404213A507E031688A0701D512A5B5
:1037600002E0490704D511A5012401E0AFF3008070
:1037700000210A2206F1240709E0B0FBF2FCB0FBAD
:10378000F2F302FB1C00303078541846491C002824
:10379000F3D123462A463046BDE8F04100F029B86F
:1037A000000000002D0000002B00000020000000A1
:1037B00070B5064600F00EF80468054630460A2249
:1037C000002100F0D1F82C6070BD70477047704741
:1037D00070470000004870471401002010B5FFF743
:1037E000F9FF006810BD10B50446FFF7F3FF046051
:1037F00010BD2DE9F0470D4699469246044600F16A
:1038000024080168880604D5E06921F010012160D0
:1038100000E00120A84201DD471B00E00027A1696C
:103820007A1902EB0900081AA0612078C00602D4B8
:103830002046AFF30080002608E0D4E901211AF801
:1038400006009047206A401C761C20624E45F4DB3F
:103850002078C0060AD52046AFF3008006E0D4E900
:10386000012130209047206A401C2062381EA7F1B9
:103870000107F4DC07E0D4E9012118F805009047BE
:10388000206A401C2062281EA5F10105F3DC2046B9
:10389000AFF300802078000602D50220BDE8F08753
:1038A0000120FBE7074B70B50D467B4400F0AFF8F5
:1038B0000446284600F02DF910B14FF0FF3070BDDE
:1038C000204670BDBDE1FFFF0FB4002300B589B0F5
:1038D0000CA900910B99CB60204B7B440693204BA5
:1038E0007B44079304236FF00042CDE901321D4A67
:1038F0007A446B4608920246002001F003FE09B0AC
:103900005DF814FB70B506464FF0FF3015460C46C7
:10391000324686B00091CDE901016946002004904D
:1039200004A8FFF7D1FF03460498211825B108B178
:103930000A4600E022462A6000280DD0002B02DD56
:103940000098884208D03246081B69460094CDE9A9
:10395000010404A8FFF7B8FF06B070BD57010000CE
:103960006F010000FD0000002DE9F04791460F4671
:1039700080460446002614F8015B2DB100F030F8B3
:103980000068405DC007F6D12B2D02D02D2D18D038
:10399000641E4A463946204600F06CF827B1396863
:1039A000A14201D1C7F800804FF0020471050BD588
:1039B0004042002803DDFFF70DFF0460A007BDE8CB
:1039C000F08746F48066E4E70028F8DAFFF702FFA4
:1039D00004606FF00040F2E70048704714010020D7
:1039E00010B500F0BFF8001D10BD00BF3516000077
:1039F00010B50446FFF7F4FF0068005D00F0010019
:103A000010BD000001694A1C02610878704700B5CA
:103A10008FB0CDE901310021059105497944CDE907
:103A2000031011466846FFF753FE0FB000BD0000BB
:103A3000E5FFFFFF426842B1016811F8013B23B185
:103A4000521EC0E90012184670470121C160881E4D
:103A5000704742685AB1C368016843B983688B42B2
:103A600005D0491E521CC0E90012002070474FF0DB
:103A7000FF3070472DE9F05F824615468B460027E0
:103A80000AF10104B9460078302801D09DB113E055
:103A900014F8010B0127782803D0582801D045B12C
:103AA0000AE00DB1102D07D1002714F8010B1025E5
:103AB00002E0082500E00A250026B0460EE005FBDE
:103AC000080005FB06F101271FFA80F801EB1046FC
:103AD000B6F5803F00D3B94614F8010B294600F033
:103AE00045F80028EBDABBF1000F05D00FB1641EDA
:103AF00000E05446CBF80040B9F1000F06D0FFF7C4
:103B000069FE02210160C81EBDE8F09F48EA064038
:103B1000FAE7007B00F0800070477546FFF75CFF16
:103B2000AE4605006946534620F00700854618B0AA
:103B300020B5FEF74BF8BDE820404FF000064FF0EF
:103B400000074FF000084FF0000B21F00701AC46D2
:103B5000ACE8C009ACE8C009ACE8C009ACE8C009F1
:103B60008D46704700487047340100203A2800D243
:103B7000303820F02002412A01D3A2F137008842D8
:103B800001D34FF0FF3070472DE9FF4F064689B053
:103B90000878FF2806D0491C2D2805D000244FF0B6
:103BA000000908E000200CE00124F8E709EB890394
:103BB000491C00EB43090878FF28F7D114B1C9F17B
:103BC00000008146107800252C46AA4629462D285B
:103BD00001D02B2804D1521C2D2813D0002082465E
:103BE0008B461078FF280FD04FF0000C0A21521C92
:103BF000A5FB017804FB018105FB0C11C5194BEBFA
:103C00000104EEE70120EAE7002108464FF000003A
:103C1000BAF1000F02D000EB80004008C0F38158D9
:103C2000B8F1010F01DD4FF0FF380C9809EB0007E8
:103C300055EA040009D04FF0020917F5FA7F0BDAB4
:103C40004FEACA70C6E900B012E04FEACA70C6E98E
:103C500000B00DB0BDE8F08FB7F5FA7F0DDDF0488C
:103C60007844D0E90010C6E9001040EACA707060DC
:103C7000FFF7B0FDC0F80090EBE7391E02DAC8F19B
:103C8000000200E0424600DA794206A800F014FA89
:103C900006AB93E8070003AB83E8070044F23E005D
:103CA0005BEA04010090584604D144F21E012C4600
:103CB0005D460091210C0904014306D100992404BA
:103CC00044EA15442D041039009104F07F4101436A
:103CD00006D10099240244EA15642D0208390091A6
:103CE00004F07041014306D10099240144EA15749F
:103CF0002D01091F009104F04041014306D10099B4
:103D0000A40044EA9574AD00891E009104F00041BE
:103D1000084304D100986D196441401E009042464A
:103D20006846002FCDE9014503A902DD00F0D1FE70
:103D300001E000F0A6FEBAF1000F04460D4601D0E6
:103D400084F0004440F2FF7724F00040284303D081
:103D5000C4F30A50B84212D1FFF73CFDC0F80090FE
:103D6000C4F30A50B8420AD1AE487844D0E90010F2
:103D7000C6E9001004F000410843706069E7C6E935
:103D8000005466E72DE9FF4F1F464FF0000A4FF041
:103D9000FF38454691B0D7E90146CDF83CA0FFF782
:103DA000E1FEC0680168405C1090B96912986D1C12
:103DB0008847396A814688470028F6D1B9F1FF3F24
:103DC0000AD0002E24F4D06411DDB9F12B0F08D0F5
:103DD000B9F12D0F0BD102E0404615B03AE744F49B
:103DE0008064B96912986D1C8847761E814660050B
:103DF00004A901D52D2000E02B20002E01F1010B9C
:103E00000DF130088DF810003FDDB9F1690F08D0D1
:103E1000B9F1490F05D0B9F16E0F02D0B9F14E0FCB
:103E20001CD13B4601A8009580E85002DDE9121242
:103E30006FF0020001F06AFBC11CCED10EE0B9693F
:103E400012986D1C884781461398761E44F40074BE
:103E500005600F98401C002E0F9016DDB9F1300F51
:103E6000EDD0B9F1780F02D0B9F1580F0DD10F98FC
:103E700001280AD13B46CDE90054DDE91212001FAA
:103E8000029601F041FBC11CA7D1109989453ED192
:103E900044F0800406E01399681CAAF1010A44F476
:103EA00000740860B9696D1C1298761E8847302826
:103EB0008146F0D02BE01099894505D1200603D426
:103EC000761E44F0800418E0484601F043F808B339
:103ED000761E0DF123018B4544F4007408D2A9F13C
:103EE00030000BF8010B200607D5AAF1010003E012
:103EF000200602D40AF101008246A00502D51399DA
:103F0000681C0860B96912986D1C88478146002EAC
:103F1000D1DC53E0002E51DDB9F1650F02D0B9F1CB
:103F2000450F4BD1A00549D5B9696D1C1298761E75
:103F300024F440748847002E81460CDD2B2804D0E1
:103F4000B9F12D0F07D144F48074B96912986D1C32
:103F50008847761E8146E00501D52D2100E02B2102
:103F600008F8011BCDF8008021E0761E0DF1390123
:103F7000884544F400740CD2A9F1300010F0FF0021
:103F800088F8000002D10099884509D908F1010894
:103F900006E0E00501D5244801E042F20F708246B8
:103FA000B96912986D1C8847814613980560002EE8
:103FB00004DD484600F0CEFF0028D6D1F9691298FA
:103FC0008847FF2053468BF8000088F80000002047
:103FD0000A900B9004AA0CA90AA8FFF7D5FDA0052A
:103FE00002D46FF00100F8E614F0240F0AD0E007C5
:103FF00014D13868DDE90A12031D3B600068C0E98E
:1040000000120BE00AA9684600F03EFFE00705D168
:104010003868009A011D3960006802602846DCE6B5
:10402000B8250000AE240000F1D8FFFF0446AFF32E
:1040300000802046FCF704F94FF0013C50F8042BB7
:1040400051F8043B9A4221D1A2EB0C03934313EAAB
:10405000CC1317D150F8042B51F8043B9A4215D1D8
:10406000A2EB0C03934313EACC130BD150F8042BAF
:1040700051F8043B9A4209D1A2EB0C03934313EA93
:10408000CC13DBD04FF00000704700BFD01A01BA4C
:10409000B1FA81F101F0180122FA01F0CB40C1F12F
:1040A0002001DBB2C0B2C01A2CFA01F3D11A91433D
:1040B00011EAC311E6D170472DE9F0478146164653
:1040C0008AB0334878440DC88DE80D0030487844F4
:1040D000801C03AC0DC884E80D0041F69B300844F9
:1040E000372190FBF1F290FBF1F5A5F1800501FB82
:1040F00012041B3C02D56442012000E00020DFF8DE
:1041000090A080460027FA44AAF1BE0A0DE0E0071D
:1041100009D03246684607EB47010AEB810100F0FF
:10412000C4FC8DE8070064107F1C002CEFD1184FF1
:104130007F44AC3F18E0E80714D007EB04100DF102
:10414000180A90E80E008AE80E00C068F04201D11B
:1041500098190890324606A903A800F0A6FC03AB04
:1041600083E807006D10641C002DE4D132466946D7
:10417000B8F1000F03A802D000F06FFC01E000F0DE
:1041800094FCC9E90001C9F808200AB0BDE8F0872D
:104190001C2100002DE9FF4F1F464FF03C0987B05E
:1041A0004FF00042DDE9141001F10108DDF858A0DC
:1041B00002EA4050039000200490834605460446DE
:1041C0000590B969461E08988847AAF1010A02902D
:1041D000BAF1000F37DD02982E2815D01021FFF715
:1041E000C5FC00282ADB4FF0010B0499014316D0CF
:1041F000B9F1000F0BDB4A46C11700F0F1F9054396
:104200000C43A9F1040905E00120059007E008B17D
:1042100045F0010501200490059800B9361DB969E3
:10422000089808F101088847BBF1000FAAF1010ABC
:104230000290CDD00999C1F80080C9E70298702892
:1042400008D0502806D0F96908988847BBF1000FBC
:1042500014D04FE0002002900120BBF1000F049029
:1042600009D0B969089808F101088847AAF101093D
:10427000B9F1000F07DCF969089888476FF0010071
:104280000BB0BDE8F08F2B2804D02D280CD14FF0B7
:10429000FF300490B969089808F101088847A9F12E
:1042A0000109B9F1000FE6DD411CE4D00A21FFF756
:1042B0005DFC0028DFDB029908F1010801EB8101B8
:1042C00000EB41000290B969089888470A21FFF77E
:1042D0004DFC099AA9F10109B9F1000FC2F800805B
:1042E00001DD0028E7DAF9690898884704990298FF
:1042F00000FB016655EA040004D004F040410900C7
:1043000002D006E0039898E0A40044EA9574AD005A
:10431000B61E04F00041080002D16D196441761EFA
:10432000159810F0240F03D04FF00B095C4803E000
:104330004FF028096FF07D008246564507DAAAEB58
:1043400006018944B9F1410F01DD4FF04109012017
:104350000021A9F1010200F043F9024628400B4672
:104360002140084301D0012100E00021501E0291AC
:1043700043F1FF3128402140084301D0012000E0F3
:1043800000200299834651EA0B014FD000210846D4
:104390004FF00000039900F4400039B100EB8000B9
:1043A0004FF4400100EBD07001EA60008015012855
:1043B00002DD4FF0FF3000E013D0401C36D00298F1
:1043C00060B3BBF1000F0CD14A460120002100F080
:1043D00007F928402140084301D0012000E00020D7
:1043E000E0B101204A46002100F0FAF803464019E6
:1043F0000A4661412D1A8C4111D3B9F1400F09DDF4
:10440000159810F0240F02D0AAF1340603E0AAF1A7
:10441000170600E0761C00254FF0004406E05B1E06
:1044200042F1FF3220EA030521EA0204CAF1010049
:10443000B04206DA1B49039808430190002000901F
:104440000EE0039AC4F3D321E80A0A43164940EA6E
:1044500044500A433146CDE90002684600F070FD41
:10446000159810F0240F0BD01598C00715D1386897
:10447000DDE90012031D3B600068C0E900120CE09A
:1044800002A8694600F000FD1598C00705D13868FC
:10449000029A011D3960006802604046F0E60000A3
:1044A00002FCFFFF0000F07F0000F03F2DE9FF4F0E
:1044B00092461D4685B04FF00041DDE9124BDDE923
:1044C00014727F1E01EA4B50414940F0FF4940EA17
:1044D0000108002122F020004928049102D04E2832
:1044E00028D04CE03BA0012607C88DE80700A96949
:1044F0000698641C88477F1E014606D41DF80600F6
:1045000018B121F0200181420BD0E9690698884753
:10451000032E34D0082E32D06FF0010009B0BDE870
:10452000F08F761C032E01D0082EE0D1601CCAF853
:104530000000DCE7A9690698641C88477F1E2AD41E
:1045400020F02000412826D1A9690698641C8847DC
:104550007F1E20D420F020004E281CD1A969069887
:10456000641C88477F1E48F4002849F48009CAF873
:10457000004001D4282806D0E969069888475FEAF8
:10458000CB7012D022E0A9690698641C88477F1E70
:1045900001D4002803DAE96906988847BCE729288E
:1045A000F1D1641CCAF80040E9E71BF0240F07D0E2
:1045B00028680499031D2B600068C0E9001805E015
:1045C0002868021D2A600068C0F800902046A5E710
:1045D0000000F07F494E46494E4954590000000002
:1045E000B2F120030AD5C2F1200301FA02F120FA48
:1045F00003F300FA02F041EA0301704700FA03F105
:104600004FF00000704720F07F4C80EA030023F059
:104610007F47ACEB070303F57C5300F0004003F148
:10462000FF032DE980494FEA154B09B44FEA1443C3
:1046300025EA0B4E24EA03480FF2042606EB132763
:1046400049083E785FEA320203FB0667C7F50007B8
:1046500007FB06F64FEA54374FEAD64606F1020644
:1046600007FB066CCCF1005C4FEA1C472CEA074CB8
:1046700007FB06F40CFB06F504EB15464FEA96160D
:1046800034BF00204FF000404FEAD13706FB07FC53
:104690004FEA1C4C0CFB0BF7D21B03FB0CF761EB36
:1046A00007010CFB0EF7B0EB074072EB17420CFB57
:1046B00008F734BFA2EB0742B2EB074261EB1741A8
:1046C0004FEA0C444FEA910706FB07FC4FEA1C4CEB
:1046D0000CFB0BF7B0EBC74072EB573203FB0CF748
:1046E00034BFA2EBC742B2EBC74261EB57310CFBC0
:1046F0000EF7B0EBC70072EB57720CFB08F734BF34
:10470000A2EBC702B2EBC70261EB5771039F4FEAFE
:10471000816141EA921104EBCC044FEAD1374FEAB0
:10472000826206FB07FC42EA90124FEA80604FEA81
:104730001C4C0CFB0BF7D21B03FB0CF761EB0701C6
:104740000CFB0EF7B0EB074072EB17420CFB08F7BF
:1047500034BFA2EB0742B2EB074261EB17414FEACD
:104760008C554FEA910704EB9C2406FB07FC4FEAAB
:104770001C4C0CFB0BF7B0EBC74072EB573203FB42
:104780000CF734BFA2EBC742B2EBC74261EB573123
:104790000CFB0EF7B0EBC70072EB57720CFB08F77F
:1047A00034BFA2EBC702B2EBC70261EB577115EB46
:1047B0004C254FEA816141EA92114FEA82624FEA49
:1047C000D13742EA901206FB07FC44F100044FEA9D
:1047D00080604FEA1C4C0CFB0BF7D21B03FB0CF761
:1047E00061EB07010CFB0EF7B0EB074072EB1742D1
:1047F0000CFB08F734BFA2EB0742B2EB074261EBB8
:10480000174115EB1C154FEA813141EA92414FEAFD
:10481000823242EA90424FEA80304FEA0C7644F10D
:10482000000448EA03434EEA0B484FF0000EB2EB97
:10483000080C71EB030724BF624639464EEB0E0E9F
:104840004FF0000B0018524149414BEB0B0BB2EB00
:10485000080C71EB03077BF1000B24BF624639465D
:104860004EEB0E0E4FF0000B0018524149414BEB3E
:104870000B0BB2EB080C71EB03077BF1000B24BFB1
:10488000624639464EEB0E0E51EA020718BF46F05B
:10489000010616EB0E7655F1000254F1000103D526
:1048A000BDE88901BDE80088BDE88901BDE8004890
:1048B000B619524141EB0101A3F101037047808019
:1048C0007F7E7D7C7B7A797877767675747372716A
:1048D00071706F6E6E6D6C6C6B6A6A696868676622
:1048E00066656464636362616160605F5F5E5E5DB4
:1048F0005D5C5C5B5B5A5A59595858575756565528
:1049000055555454535352525251515050504F4F89
:104910004F4E4E4D4D4D4C4C4C4B4B4B4A4A4A49D9
:10492000494948484847474747464646454545441C
:1049300044444443434343424242424141410000D4
:1049400046EA0646A3F570534FEA164646EA425633
:104950004FEAD22242EA415210B54FEAD121A3F1E7
:10496000010300F017F820F0004000F1010C00F006
:10497000004701EB00501146BCF5006F40EA07000C
:1049800000D210BD02484FF0000140EA070010BD00
:104990000000F07F002B26D4770021D01CB54FEA11
:1049A000370703B44FF010004FF010014FF0000034
:1049B0000FBCBDE810400BF1010BBBF1010F08BFAC
:1049C0005FEA170722BF12F1010211F101014FF056
:1049D000004143F1000300F0004043EA000070474B
:1049E000F9D35708DAE746EA064613F1400F4FEAD3
:1049F00016461FDD13F1200FDFBF16430A460021C4
:104A000020335B42C8D0C3F1200746EA064602FACB
:104A100007F74FEA164646EA0706C3F1200722FACF
:104A200003F201FA07F721FA03F14FF0000342EA1B
:104A30000702B1E746EA020646EA06464FEA16468C
:104A400046EA0106BCBF46EA0646360C4FF00003B4
:104A50004FF000024FF000019EE72DE9C048934659
:104A600030B491E8380007C831EA400C48BF34EA56
:104A7000430C03D5FFF7C7FDFFF78CFFF0BCBDE883
:104A800000882DE9C048934630B491E8380007C843
:104A900031EA400C48BF34EA430C03D5FFF7B3FDBD
:104AA000FFF74EFFF0BCBDE800882DE9C0489346F3
:104AB00030B491E8380007C810F0804F08BF13F0F9
:104AC000804F03D100F019F8FFF764FFF0BCBDE898
:104AD00000882DE9C048934630B491E8380007C8F3
:104AE00010F0804F08BF13F0804F03D100F005F89D
:104AF000FFF726FFF0BCBDE8008820F07F4780EA82
:104B0000030023F07F4C07EB0C03A3F57C5300F06C
:104B10000040A3F1FE0392F0000F00F0B38095F087
:104B2000000F00F077802DE901494FEA11404FEA6C
:104B3000144621EA004800FB06FC24EA064708FB6D
:104B400006F607FB08F800FB07F718EB06484CEBE6
:104B5000164C4FEA124B18EB07484FEA15464CEB40
:104B6000174022EA0B4E0BFB06FC25EA06470EFB1C
:104B700006F607FB0EFE0BFB07F71EEB064E4CEB93
:104B8000164C4FF000061EEB074E4CEB174B18EB84
:104B90000B0840F1000018EB0E0B58EB000840F139
:104BA00000008F1A4FF000013CBFC943661B14BFC1
:104BB000B5EB040C00213CBFC943F61B4FEA174478
:104BC0004EEA8E0E27EA04454FEA1C4704FB0762B3
:104BD0002CEA074C05FB07F70CFB05F604FB0CFC65
:104BE00016EB074642EB174216EB0C4642EB1C4213
:104BF0001BEB060658EB0202414146EA9E0601D530
:104C0000BDE80189B619524141EB0101A3F101034D
:104C1000BDE801894FEA14454FEA114724EA0546E9
:104C200021EA074C05FB07F406FB07F70CFB06F12E
:104C300005FB0CFC11EB074144EB17444FEA12470C
:104C400011EB0C4144EB1C4422EA074C05FB07F234
:104C500006FB07F70CFB06F605FB0CFC16EB0746FC
:104C600042EB174216EB0C4642EB1C456A1854F116
:104C7000000148BF7047B619524141EB0101A3F151
:104C80000103704795F0000F37D04FEA11424FEA09
:104C9000144721EA024624EA074C02FB07F106FB0F
:104CA00007F70CFB06F402FB0CFC14EB074441EB8A
:104CB00017414FEA154714EB0C4441EB1C4125EA20
:104CC000074C02FB07F506FB07F70CFB06F602FB99
:104CD0000CFC16EB074645EB174516EB0C4645EB6F
:104CE0001C42121951F1000148BF7047B6195241D8
:104CF00041EB0101A3F1010370474FEA14454FEA6C
:104D0000114724EA054621EA074C05FB07F106FB9B
:104D100007F70CFB06F24FF0000605FB0CFC12EB4C
:104D2000074241EB174112EB0C4251EB1C4148BFCB
:104D30007047921841EB0101A3F101037047000095
:104D400030B583B00446FEF749FD9FED090B0546DB
:104D50008DED000B002221466846FEF7D3FD284664
:104D6000FEF741FD9DED000B03B030BD00000000DB
:104D7000000000000000000030B540F2FF742DED8F
:104D8000048BF0EE608A18EE901A85B0B0EE408A7F
:104D90009FED2B9B05468DED008B34EA115147D0DA
:104DA00053EC192B51EC180B00F096F940D02A4621
:104DB00051EC180B00F078FB41EC180B18EE900A40
:104DC0008DED008B34EA10501CD053EC192B51ECB4
:104DD000180B00F081F92BD10220FEF704FD00F042
:104DE00043F810EE901A18EE900A8DED020B8DED3F
:104DF000008B61F31E0003909DED020B05B0BDEC2E
:104E0000048B30BD0220FEF7EEFC00F01DF810EE22
:104E1000901A18EE900A8DED020B8DED008B61F368
:104E20001E0003909DED020B05B0BDEC048B30BD60
:104E300005B0B0EE480AF0EE680ABDEC048B30BD58
:104E400000000000000000009FED050B10B553ECC2
:104E5000102B51EC100B00F0B7F941EC100B10BD0A
:104E600000000000000000709FED050B10B553EC32
:104E7000102B51EC100B00F0A7F941EC100B10BDFA
:104E8000000000000000001030B504462DED048B3A
:104E900081B06A4691ED008B51EC180B00F064F87C
:104EA00000989FED239B7E300090002821DC53EC7E
:104EB000192B51EC180B00F00FF91AD0002140F615
:104EC00008004FF00000054651EC180B00F0BEF84A
:104ED00008EE100A40F6080005EA00014FF0000055
:104EE000B5EEC08AF1EE10FA04BF0220FEF77BFC9B
:104EF00017E00098FF280EDB0220FEF774FC53EC4D
:104F0000192B51EC180B00F05DFA8CBF9FED0A8A4B
:104F10009FED0A8A05E051EC180B00F097F808EEB7
:104F2000100A84ED008A01B0BDEC048B30BD000096
:104F30000000000000000000000080FF0000807FF3
:104F400010B5044690ED000B0846FFF715FF84ED01
:104F5000000B10BD30380A2801D201207047002014
:104F6000704700000000000010B582B01446CDE983
:104F700000010023009A2360194B21F00040984261
:104F80002ADA024328D0B0F5801FA8BF226810DAC1
:104F90009FED150B53EC102B9DED000B51EC100BFE
:104FA00000F012F9CDE900016FF0350221F0004068
:104FB00022600F4B6FF31E5103EB20501044206012
:104FC00041F0FF5040F0005001909DED000B00BFFC
:104FD00002B051EC100B10BD9DED000BF8E7000086
:104FE0000000F07F000000000000000000005043BF
:104FF00002FCFFFF10B500290AD00878002807D06E
:1050000005487844FFF718F8002801D0002010BDAB
:105010000248784410BD0000221200001A1200005D
:1050200010B500290AD00878002807D00548784430
:10503000FFF702F8002801D0002010BD0248784494
:1050400010BD0000121200000A12000021F0004200
:10505000A2F16052B2F5801F01F0004328BFD2F1E7
:105060007F6C0BD95FEA001C43EAC20242EB50702E
:1050700018BF704728BF20F001007047B2F5801FAD
:10508000BCBF184670474FEA410C1CF5001F02D206
:10509000084600F0D2B970B500F040F90000008970
:1050A000FFF7F6BF4FF00040A0F58000704700000A
:1050B00002494FF0000000F0C5B900BF0000F87FC2
:1050C000491058BFC1F140415B1058BFC3F1404384
:1050D0008B42EFF30080704751EA030C17D41CF5A4
:1050E000801F58BFBCF5801F00F10680994218BF91
:1050F000704708BF9042704707D711F5801F58BF0F
:1051000013F5801F19D499427047894270471CF5E6
:10511000801F08D5BCF5801FF7D58B4218BF70479C
:1051200008BF824270474FF4001C1CEB410F38BF90
:105130001CEB430F01D28B42704770B500F0EEF8C4
:10514000922449004FF000514FF08053FFF7B8BF51
:1051500051EA030C17D41CF5801F58BFBCF5801F03
:1051600000F10680994218BF704708BF904270470F
:1051700007D711F5801F58BF13F5801F19D4994226
:105180007047894270471CF5801F08D5BCF5801F09
:10519000F7D58B4218BF704708BF824270474FF463
:1051A000001C1CEB410F38BF1CEB430F01D28B429C
:1051B000704770B500F0B2F8922449004FF00051EA
:1051C0004FF08053FFF77CBFDFF848C170B51CEA91
:1051D000111E1EBF1CEA13159EEA0C0F95EA0C0F58
:1051E00000F06F8081EA030423EA4C134EEAD47E78
:1051F00021EA4C1141F4801143F48013AE44A1FB29
:10520000024CA0FB0365AEF17F7E361955EB0C0511
:10521000A1FB034C4CF10003A0FB021C16EB0C0697
:10522000654153F10003094218BF46F0010613F42B
:10523000007F0BD14FEA03314FEA0530340341EAD6
:10524000155140EA16506FF003020AE04FEAC321FD
:105250004FEAC520F40241EA555140EA56506FF03A
:10526000020202EB2E4201EB025585EACE710AD012
:105270005FEA440C18BF24F0004450F1000041F1F3
:10528000000120EAD47040F2FE7C624500D270BD7D
:10529000A84214BF4FF080444FF04044002E08BF96
:1052A0000024BEF1806FA8BFA1F1C041BDE87040ED
:1052B00080F282804FF0000001F1C04101F0004116
:1052C00070479EEA0C0F0CEA131518BF95EA0C0FF5
:1052D00006D04FF0000081EA030E0EF0004170BDD1
:1052E00000F01CF88900013E00F007B800F009B892
:1052F0004FEA430C5FEA5C5C08D081EA030100F0EE
:105300005BB84FEA410C5FEA5C5CF6D14FF00000FD
:10531000014970470000FF070000F87F0EF1020E00
:105320002EF0030E5EF8046B364205D4012A43EBDF
:10533000030515F5001F12D8012841EB010C1CF5DF
:10534000001F0CD80ED14FEAD17C15F5001F0CEBD5
:105350004C0C0CF1020C08BF4CEBD37C04E04FF07A
:10536000080C01E04FEAD37C0CEB4C0526FA05F65D
:1053700006F00706B6F1040C06D20EEB860CBDE86B
:1053800070404CF0010C6047DFE80CF0090B0202A2
:105390004FF000414FF00000A1F5002170BD19460B
:1053A0001046012851EB010418BFD4F5001484BF46
:1053B000002001F0004170BD0808A0F500114FEA7F
:1053C0003101704753EA010C17D41CF5801F58BFF8
:1053D000BCF5801F00F106808B4218BF704708BFE4
:1053E0008242704707D713F5801F58BF11F5801F01
:1053F00019D48B4270479B4270471CF5801F08D51B
:10540000BCF5801FF7D5994218BF704708BF90427E
:1054100070474FF4001C1CEB430F38BF1CEB410FCF
:1054200001D2994270470FB40CBC03BCFFF7C1BE58
:105430004FF04070E1EE100A7047FF2141EAD05072
:10544000C00570470CF00F03092B08BF082000F0BF
:105450005F800A2B0BD0082B18BF704708BF1CF0C9
:10546000400F0AD04FF000004FF0000170471CF0D1
:10547000400F18BF4FF0004070471CF0100F08D0CD
:1054800020F0704300F07F4242EAD3014FEA4370BC
:10549000704700F0604021F07F4242EA000201F0D4
:1054A0007F4040EA727070474FF0FF0C4CF4E06CA4
:1054B0001CEA11531CBF9CEA030C9445C2BFDA429C
:1054C00001EB02517047002B0DD0BCF1000F0FD043
:1054D000002A01F00041A4BF41F0E04141F07F61AA
:1054E0004FF00000704701F000414FF0000070479E
:1054F00050EA01334FF09B0C18BF4CF0806C7FF4E6
:10550000D7AD7047FEF73EBCFEF744BEFEF7CEBFF8
:105510001CF4801F11D01CF4E02F03D06FEACC31B3
:10552000490070474FF04050EFF3008222F0704284
:1055300042EA000282F3008870474FF00000704793
:10554000000000000000000000000000000000005B
:10555000000000000000000000000000000000004B
:10556000000202FAFAAAAAFFFFAAAAFAFA020200A5
:10557000004272723A7A424B5B5262621377660063
:10558000203C1CFFFFB0B424243F3FE4E42424204B
:10559000020203FFFF0001051D59C1FF7F01010148
:1055A000000000F8F8484C4F4B4A4848F8F8000013
:1055B000000000FFFF44444444444444FFFF000013
:1055C000202424E4E42424243010FFFF10F0F00011
:1055D000081C1F0B0C0D4F6E341C0F23607F3F0007
:1055E00080C060F8FF070200FFFFE0703C1C08006D
:1055F0000000007F7F0406033F7F40404078780032
:10560000000000000000000000000000000000009A
:10561000000000000000000000000000000000008A
:10562000000000000000000000000000000000007A
:10563000000000000000000000000000000000006A
:1056400010218670007E4A4A4A4A4A7E00000000C5
:1056500002FE01407F41417F41417F41417F400047
:105660000000FC042424FCA5A6A4FC24242404009B
:1056700080601F808042462A12122A2642C04000C3
:10568000080808FF8848009848280A2C48D80800CD
:105690000242817F0000404242427E42424240003C
:1056A00000504F4A48FF48484800FC0000FF0000F7
:1056B00000003F0101FF21613F000F40807F00009B
:1056C00000908CA4A4A4A5A6A4A4A4A4948C0400D3
:1056D0000080402018070000003F4040407000005C
:1056E000000474D4FFD47404100CB744B40C040048
:1056F0000042437A4342437E4B4B4A4A42430100B5
:10570000080808080808F94A4C4848C8080808006A
:10571000404020100C0300002040403F00000000EB
:1057200000202C246474ADA6E43424242C2400002E
:105730000024242515150DFE040D171424642400DF
:10574000000000F848484C4B4A484848F800000020
:10575000000000FF4444444444444444FF0000002B
:10576000202424E4242424201010FF1010F0000032
:10577000081C0B080C054E24100C0320403F0000B1
:10578000080808FF8848009848280A2C48D80800CC
:105790000242817F0000404242427E42424240003B
:1057A00000504F4A48FF48484800FC0000FF0000F6
:1057B00000003F0101FF21613F000F40807F00009A
:1057C0000807FAAAAEAAAAA8ACABAAFE0A0202006F
:1057D00008088B6A1E0A0A0A0AFE0A0B0808080053
:1057E000106001C63000101010FF101010100000E3
:1057F0000404FE01004161514D43414151E101006A
:105800004041CE04008040BE828282BEC040400043
:1058100000007F20908040432C10102C43C040009B
:1058200020212EE4000020202020FF202020200026
:105830000000007F201008000000FF0000000000B2
:105840000000F848484848FF48484848F800000029
:1058500000000F040404043F444444444F407000DB
:1058600000000202020202E2120A060200800000A8
:10587000010101010141817F0101010101010100DB
:105880000020202222E2222222E2222222202000C4
:10589000004020100C030000003F404040407000DA
:1058A0004020F80F82601E1410FF1010101000002E
:1058B0000000FF000101010101FF010101010100E0
:1058C000000000007E4848484848484848CC080046
:1058D000000404040404040404244644201F0000BB
:1058E000849494FF949480242424FC1213120000C6
:1058F000201806FF021C0A0202023F4141417100CA
:105900001010D0FE509000101010D0FE101010009B
:10591000080601FF000110080443807F000000001A
:105920009088A7A2A6BAA2F8A7A2A6BAA2828000CF
:1059300000040404040C340444847F0404040000C0
:105940000000000000000000002F00000000070021
:10595000070000147F147F1400242A7F2A1200629B
:105960006408132300364955225000000503000047
:1059700000001C224100000041221C000014083ECF
:1059800008140008083E0808000000A06000000895
:1059900008080808000060600000002010080402E9
:1059A000003E5149453E0000427F400000426151A7
:1059B0004946002141454B31001814127F10002741
:1059C00045454539003C4A49493000017109050304
:1059D00000364949493600064949291E0000363635
:1059E0000000000056360000000814224100001498
:1059F0001414141400004122140800020151090675
:105A000000324959513E007C1211127C007F4949F5
:105A10004936003E41414122007F4141221C007F26
:105A200049494941007F09090901003E4149497A34
:105A3000007F0808087F0000417F410000204041AE
:105A40003F01007F08142241007F40404040007F1A
:105A5000020C027F007F0408107F003E4141413E5E
:105A6000007F09090906003E4151215E007F0919A6
:105A700029460046494949310001017F0101003FA3
:105A80004040403F001F2040201F003F4038403F23
:105A90000063140814630007087008070061514987
:105AA000454300007F41410000552A552A5500001A
:105AB00041417F0000040201020400404040404098
:105AC000000001020400002054545478007F484430
:105AD000443800384444442000384444487F003867
